:020000040000fa
:080000000002040000000000f2
:020000040000fa
:040008006e03000083
:020000040000fa
:04000c006e0300007f
:020000040000fa
:040010006e0300007b
:020000040000fa
:040014006e03000077
:020000040000fa
:040018006e03000073
:020000040000fa
:04001c006e0300006f
:020000040000fa
:040020006e0300006b
:020000040000fa
:040024006e03000067
:020000040000fa
:040028006e03000063
:020000040000fa
:04002c006e0300005f
:020000040000fa
:040030006e0300005b
:020000040000fa
:0400340002030000c3
:020000040000fa
:040038006e03000053
:020000040000fa
:04003c006e0300004f
:020000040000fa
:040040006e0300004b
:020000040000fa
:040044006e03000047
:020000040000fa
:04004800fa020000b8
:020000040000fa
:04004c006e0300003f
:020000040000fa
:040050006e0300003b
:020000040000fa
:040054006e03000037
:020000040000fa
:040058006e03000033
:020000040000fa
:04005c004c03000051
:020000040000fa
:040060006e0300002b
:020000040000fa
:040064006e03000027
:020000040000fa
:040068006e03000023
:020000040000fa
:04006c006e0300001f
:020000040000fa
:040070006e0300001b
:020000040000fa
:040074006e03000017
:020000040000fa
:040078006e03000013
:020000040000fa
:04007c006e0300000f
:020000040000fa
:040080006e0300000b
:020000040000fa
:040084006e03000007
:020000040000fa
:040088006e03000003
:020000040000fa
:04008c006e030000ff
:020000040000fa
:040090006e030000fb
:020000040000fa
:040094002203000043
:020000040000fa
:040098006e030000f3
:020000040000fa
:04009c006e030000ef
:020000040000fa
:0400a0006e030000eb
:020000040000fa
:0400a4006e030000e7
:020000040000fa
:0400a8006e030000e3
:020000040000fa
:0400ac006e030000df
:020000040000fa
:0400b0006e030000db
:020000040000fa
:0400b4006e030000d7
:020000040000fa
:0400b8006e030000d3
:020000040000fa
:0400bc006e030000cf
:020000040000fa
:0400c0006e030000cb
:020000040000fa
:0400c4006e030000c7
:020000040000fa
:0400c8006e030000c3
:020000040000fa
:0400cc006e030000bf
:020000040000fa
:0400d0006e030000bb
:020000040000fa
:0400d4006e030000b7
:020000040000fa
:0400d8006e030000b3
:020000040000fa
:0400dc006e030000af
:020000040000fa
:0400e0006e030000ab
:020000040000fa
:0400e4006e030000a7
:020000040000fa
:0400e8006e030000a3
:020000040000fa
:0400ec006e0300009f
:020000040000fa
:0400f0006e0300009b
:020000040000fa
:0400f4006e03000097
:020000040000fa
:0400f8006e03000093
:020000040000fa
:0400fc006e0300008f
:020000040000fa
:040100006e0300008a
:020000040000fa
:040104006e03000086
:020000040000fa
:040108006e03000082
:020000040000fa
:04010c006e0300007e
:020000040000fa
:040110006e0300007a
:020000040000fa
:040114006e03000076
:020000040000fa
:040118006e03000072
:020000040000fa
:04011c006e0300006e
:020000040000fa
:040120006e0300006a
:020000040000fa
:040124006e03000066
:020000040000fa
:040128006e03000062
:020000040000fa
:04012c006e0300005e
:020000040000fa
:040130006e0300005a
:020000040000fa
:040134006e03000056
:020000040000fa
:040138006e03000052
:020000040000fa
:04013c006e0300004e
:020000040000fa
:040140006e0300004a
:020000040000fa
:040144006e03000046
:020000040000fa
:040148006e03000042
:020000040000fa
:04014c006e0300003e
:020000040000fa
:040150006e0300003a
:020000040000fa
:040154006e03000036
:020000040000fa
:040158006e03000032
:020000040000fa
:04015c006e0300002e
:020000040000fa
:040160006e0300002a
:020000040000fa
:040164006e03000026
:020000040000fa
:040168006e03000022
:020000040000fa
:04016c006e0300001e
:020000040000fa
:040170006e0300001a
:020000040000fa
:040174006e03000016
:020000040000fa
:040178006e03000012
:020000040000fa
:04017c006e0300000e
:020000040000fa
:040180006e0300000a
:020000040000fa
:040184006e03000006
:020000040000fa
:040188006e03000002
:020000040000fa
:04018c006e030000fe
:020000040000fa
:040190006e030000fa
:020000040000fa
:040194006e030000f6
:020000040000fa
:040198006e030000f2
:020000040000fa
:04019c006e030000ee
:020000040000fa
:0401a0006e030000ea
:020000040000fa
:0401a4006e030000e6
:020000040000fa
:0401a8006e030000e2
:020000040000fa
:0401ac006e030000de
:020000040000fa
:0401b0006e030000da
:020000040000fa
:0401b4006e030000d6
:020000040000fa
:0401b8006e030000d2
:020000040000fa
:0401bc006e030000ce
:020000040000fa
:0401c0006e030000ca
:020000040000fa
:0401c4006e030000c6
:020000040000fa
:0401c8006e030000c2
:020000040000fa
:0401cc006e030000be
:020000040000fa
:0401d0006e030000ba
:020000040000fa
:0401d4006e030000b6
:020000040000fa
:0401d8006e030000b2
:020000040000fa
:0401dc006e030000ae
:020000040000fa
:0401e0006e030000aa
:020000040000fa
:0401e4006e030000a6
:020000040000fa
:0401e8006e030000a2
:020000040000fa
:0401ec006e0300009e
:020000040000fa
:0401f0006e0300009a
:020000040000fa
:0401f4006e03000096
:020000040000fa
:0401f8006e03000092
:020000040000fa
:0401fc006e0300008e
:020000040000fa
:040200006e03000089
:020000040000fa
:040204006e03000085
:020000040000fa
:040208006e03000081
:020000040000fa
:04020c006e0300007d
:020000040000fa
:040210006e03000079
:020000040000fa
:040214006e03000075
:020000040000fa
:040218006e03000071
:020000040000fa
:04021c006e0300006d
:020000040000fa
:040220006e03000069
:020000040000fa
:040224006e03000065
:020000040000fa
:040228006e03000061
:020000040000fa
:04022c006e0300005d
:020000040000fa
:040230006e03000059
:020000040000fa
:040234006e03000055
:020000040000fa
:040238006e03000051
:020000040000fa
:04023c006e0300004d
:020000040000fa
:040240006e03000049
:020000040000fa
:040244006e03000045
:020000040000fa
:040248006e03000041
:020000040000fa
:04024c006e0300003d
:020000040000fa
:040250006e03000039
:020000040000fa
:040254006e03000035
:020000040000fa
:040258006e03000031
:020000040000fa
:04025c006e0300002d
:020000040000fa
:040260006e03000029
:020000040000fa
:040264006e03000025
:020000040000fa
:040268006e03000021
:020000040000fa
:04026c006e0300001d
:020000040000fa
:040270006e03000019
:020000040000fa
:040274006e03000015
:020000040000fa
:040278006e03000011
:020000040000fa
:04027c006e0300000d
:020000040000fa
:040280006e03000009
:020000040000fa
:100400000f0421000eff2c000e01880000000000e8
:10041000000020000000e000020032000001200087
:100420002002880014000700ae0007000000e00072
:1004300003003a008029210001002000020037005b
:100440000000200001002000810f70000100320038
:100450000f000700000020000000e0000200320052
:1004600000000200000000003e0702000000000043
:100470000040da000000fe00200020000000e00044
:1004800002003200100020009001880000000600e9
:10049000a1028800800478000000eb001f003700f4
:1004a000e284440054a0b4009905ba00e2844400f8
:1004b00054a0b4009906ba00e284440054a0b400e9
:1004c0000006eb00476fde00fd07b200ae018800ba
:1004d000636ce10003003a000ad801000000eb0061
:1004e0000e003700606ce10008003a00004deb00a0
:1004f0000a05e800020039003420ec000af0a000f0
:100500008b05e900f9ff3e00040037006168e10057
:10051000010032000086eb000b00070019c7ba008b
:100520000e04e0001905ba0003003a000a00e000da
:10053000dbff3a0000000600fe07b200ae028800b2
:100540008a047800f5ff37000cd0a300e20f4d00bd
:100550001c00390089027800354dba000a05e80010
:10056000020039003420ec000af0a0008b05e900fd
:100570000f003200254dba000a05e80002003900dc
:100580003420ec000af0a0008b05e90008003200de
:100590000c00e0000600320015cdba000a05e800a4
:1005a000020039003420ec000af0a0008b05e900bd
:1005b0008984e80054a0b4000b00e000e2ff3a0098
:1005c000000006009902ba00055d78008b05e9007d
:1005d000f7ff3200c82ade00055d78008b05e900d0
:1005e000f3ff32000c00e000f1ff320019ddba0029
:1005f000eeff37000000fa000108a9000080fa00b1
:10060000004006003600f800809fbe00829fbe00ba
:10061000849fbe00869fbe000000fa000068a9000b
:1006200020060700870707000080fa004f03be007e
:100630004f02be004f01be004f00be003600f90061
:10064000004006003600f800809fbe00829fbe007a
:10065000849fbe00869fbe000000fa000368a900c8
:10066000608080007180800061004000e080480070
:100670006080880071808800600207000080fa00b6
:100680004f03be004f02be004f01be004f00be0030
:100690003600f90000400600809fbe000000fa000e
:1006a00001a8a9000118800020002100010878009d
:1006b00011188000200021001100980021188000ee
:1006c000200021002100980010c0b3000af0b700fc
:1006d0000080fa004f00be00004006000040da0033
:1006e0000000fe000000050003f0a200889fbe008d
:1006f0008a9fbe008c1f78002a0107003101330059
:100700006450e1004f0032006420e10052003200ea
:1007100003826c0007003b000905d0000306d000ef
:10072000820f54000c065d00020039000200320006
:1007300089017800030678008582550004003d0099
:100740000003fd008103fd008502ea008b85420065
:10075000840f720002003b0060001000e08018006f
:100760006011b8000005eb007a28e1000a003900aa
:1007700006007800c75ddd00f707b20087807500ce
:100780002d003700828171000a0178006105600048
:100790008180d1000080d3008502e900f9ff3b0091
:1007a000060440008784480002003b0060041400f7
:1007b000e0841c000988a300070032008a817100d0
:1007c00082817100610164008904d1000884d30032
:1007d0008b05e800170037000978a30013003a00e2
:1007e0000b00e000130034008b05e900080444000e
:1007f00089844c000a4474000978a3000d003a0073
:100800000b00e000070034008b05e90008044400f9
:1008100089844c0001003a000b0020000978a300f5
:10082000f7ff32000001eb00020037008281710007
:100830000a017800a00007000cf0a70001f0a0005a
:10084000e90037006420e10002003a00838f6c0069
:10085000e90033000801be000200be00e2003700dc
:10086000889fbe008a9fbe008c1f7800cd000700c5
:10087000d400330003866c006450e1002e00320087
:100880006420e100330032006150e1002f003200ab
:100890006120e1003100320085855500eb07b00092
:1008a0000900200008042000050037000804440067
:1008b00089844c000a0031000603430087834b0003
:1008c0000001530081815b00f8ff33000203be008a
:1008d0000800a0000804440089844c00f6ff390099
:1008e000c639dd00830173000100320013002000cf
:1008f0008904d1000884d3000998a30005003200c0
:100900000800a7000300a0008904d1000884d300d8
:100910008b05e8008904d1000884d3000001eb00b6
:100920000281d2006400070001f0a1000cf0a700d2
:1009300001f0a000ac0037006420e100ae003200fe
:100940000801be000200be00f7ff37006120e10091
:10095000a90032006000b800f3ff3700000020005b
:1009600001f82700f0ff3700839f68000100e000d6
:1009700002003d0060001000e08018000300e0006d
:1009800002003d0060011100e0811900d100070064
:100990004f00e00002003b0060001000e080180003
:1009a0000000060014002000da003700f4ff2f00da
:1009b000d80037000001be00650007000470a700e2
:1009c00003f0a1006509b100160032000d003500ea
:1009d0006828e10006003500f0ff2f00f1ff270036
:1009e0000300e00013003b000100280000000500a8
:1009f00000004000818048008502e900fcff3a00c9
:100a000008003700f88f420002003c008000eb0035
:100a1000000005008100d1000080d3008502e800bd
:100a2000fcff3a000300e00002003b006000100001
:100a3000e0801800000006000001be00440007002e
:100a40000470a70003f0a10003f8a30013003a000c
:100a50006509b10010003200090035006928e10085
:100a600002003500010028000000050000004000e1
:100a7000818048008502e900fcff3a000000060082
:100a8000f88f4200050035008100d1000080d300be
:100a90008502e800fcff3a00000006008000eb0041
:100aa000000005004f89de0082017800b4003700a5
:100ab0006011b800c200370081002000618055003d
:100ac0000b003d000b00200061fe2f000100e10043
:100ad0001d00340082817100610164008904d1002d
:100ae0000884d3000000e800faff3a0071002000fb
:100af0006100640003007000020060000900320021
:100b000061044400e0844c000988a500050032001f
:100b10008b05e8006808e10002003a008904d10072
:100b20000884d300f20f20000258e10005003d00c8
:100b3000c75ddd00f907b200898075000800780004
:100b4000000006000bf827008b007800000005006d
:100b5000c70ade00f107b200f50fb200080032004c
:100b6000e1cf4200020032000170a0002400050025
:100b7000810f7000010032000408050044000500e8
:100b8000810f700002003a00140005008502e900a0
:100b90000000400081c04800fcff3b000170a00045
:100ba000240005000004be00e9ff07000003be00aa
:100bb0000405be000200be00e5ff0700844f75007b
:100bc000000006000200be006450e100050036008f
:100bd0006420e100020036000968a30001003a0029
:100be0000800be000160a0004f0678004f05be005f
:100bf0004f04be0000000600f0ff2f00f1ff2700a9
:100c0000f9ff3700889fbe008a9fbe008c1f7800c6
:100c1000e4ff0700ebff330003866c006450e10043
:100c2000240032006420e100270032006150e1001e
:100c3000220032006120e100210032008b85420059
:100c4000eb07b1000134b800003ab80008044200d4
:100c500089844a00013ab8000030b800888040001a
:100c600009014a0004003300000040008180480070
:100c7000020149008b05e900c909dd00830170000c
:100c80000100320013002000c814de004814dd000b
:100c90004709de001200b200c808de0008847000b8
:100ca00085ff070001f0a1000cf0a70001f0a000f3
:100cb000cdff37006120e100cfff32000801be0008
:100cc0000200be00f7ff37006150e100fcff3a0070
:100cd000c9ff37006022b800060220000000d000e3
:100ce0008180d2000482d2008582d2000000a00060
:100cf0000202520083825a000300310002024200c5
:100d000083824a000000a1000603e900f3ff3a00d5
:100d100000000600889fbe008a9fbe00841f7800e6
:100d2000a0ff07004f00780011003300f0ff2f00f4
:100d3000838f6c0006003b00040565000a00a700d5
:100d40000800370009f0a600100020000800370056
:100d5000820f5400838f5c000300390010002000d4
:100d600001003e000000200009f0a7000000ea009a
:100d70004f05be004f04be000000e000000006006a
:100d8000881f7800030478000300e00007003d009e
:100d900060001000e080180060011900e081190077
:100da00002003b0001f02d000300370004000700a3
:100db00008f0a70001f0a0004f0478000000060032
:100dc000889fbe008a9fbe000082700004027100ee
:100dd00004827100260032000004be000200be0042
:100de0006011b8006b092000950220000182cf003d
:100df0000a0039000541b1000082cf000700390028
:100e00000541b1000982cf00040039000541b1005d
:100e10000882cf00010039000541b10005425200af
:100e2000120032000a003b008281710061016400ff
:100e30008100d1000080d3008984d3000884d300ce
:100e40008b05e8000442e800f7ff3a00070037008e
:100e50000804440089844c00000048008180480058
:100e60008b05e9000442e900f9ff3a0012ff070090
:0c0e70004f05be004f04be00000006004d
:020000040000fa
:100e7c000800fa0080050700c0050700a50207005e
:100e8c004b030700d403070035050700c703070011
:100e9c0001003700000000006b050700000f780010
:100eac006d050700e14f5000faff3a006e05070090
:100ebc0065050700100798001e00900064004000b4
:100ecc00100078008000eb00f6fe070032332300a0
:100edc003305240048ff07000200200003582400bb
:100eec005cfe0700d2cc2c00c304240042ff070098
:100efc0020079800310798002e019000be01900049
:100f0c00000020008120240052fe07000200200077
:100f1c00030a2400f1fd07006081880071818800bc
:100f2c001e0090000080e800100078008000eb00ac
:100f3c00dcfe070032332300330524002eff0700ac
:100f4c00020020000358240042fe0700d2cc2c00e3
:100f5c00c304240028ff07002007980031079800dd
:100f6c002e019000be019000000020008120240082
:100f7c0038fe070002002000030a2400d7fd0700fa
:100f8c0080818800918188001e00900010007800fc
:100f9c008000eb00c3fe070032332300330524002e
:100fac0015ff0700020020000358240029fe07004b
:100fbc00d2cc2c00c30424000fff0700200798009c
:100fcc00310798002e019000be0190000000200017
:100fdc00812024001ffe070002002000030a2400c9
:100fec00befd0700a0818800b1818800aaff3700f0
:100ffc000000fa0016d0bf000080fb00cf80de009e
:10100c00b200200003002000820f5000838f580094
:10101c0060003e00000601000b0037001400370092
:10102c001d0037002700370028003700310037003b
:10103c00320037003b0037003c00370046003700d9
:10104c0047003700510037000c30ef000e30ef0036
:10105c000041eb006000b8007b03070012c0b30036
:10106c006000b8007803070010c0b30016f0b7009a
:10107c006280800073808000803e20000100200090
:10108c00800f5100818f59004500360020c0b300fd
:10109c0016f0b700430037000041eb0000002000c1
:1010ac00811c24006803070012c0b300000020005c
:1010bc00811c24006403070030c0b30016f0b70095
:1010cc003800370039000700360037000041eb00cc
:1010dc006000b8005c03070012c0b30000002000e1
:1010ec00011724005803070050c0b30016f0b700d6
:1010fc002c0037002d0007002a0037000041eb00c0
:10110c0000002000011724004f03070012c0b30099
:10111c006000b8004c03070070c0b30016f0b700b5
:10112c0020003700210007001e0037000041eb00b3
:10113c000000200001172c004303070012c0b3006d
:10114c0000002000011724003f03070090c0b300eb
:10115c0016f0b70013003700140007001100370019
:10116c000041eb00000020000117240036030700ab
:10117c0012c0b3000000200001172c00320307003e
:10118c00b0c0b30016f0b700060037000700070028
:10119c00040037001670ef0000000000010037005b
:1011ac00000000000080fa00000006000200fa00b7
:1011bc00889fbe008a1f78000040eb00004f78002b
:1011cc00688180007981800090808000cf80de0073
:1011dc0031fe07001ac0b3000001be000800be00bb
:1011ec00edfd07000000e000010035000045eb00bc
:1011fc000a04e0001f003200888180009981800081
:10120c00a0808000cf80de0023fe07001ac0b30050
:10121c000001be000800be00dffd07000000e0007a
:10122c00010035000045eb000a04e000110032001b
:10123c00a8818000b981800090808000cf80de0082
:10124c0015fe07001ac0b3000001be000800be0066
:10125c00d1fd07000000e000010035000045eb0067
:10126c000a04e0000300320070c0b300004f7800a5
:10127c001e01370068818000798180009080800099
:10128c00cf80de0004fe07001ac0b3000001be00d0
:10129c000800be00c0fd07000000e00001003500a2
:1012ac000045eb000a04e0001f003200888180003a
:1012bc0099818000a0808000cf80de00f6fd0700c1
:1012cc001ac0b3000001be000800be00b4fd070048
:1012dc000000e00001003c000045eb000a04e000c7
:1012ec0011003200a8818000b981800090808000bc
:1012fc00cf80de00e8fd07001ac0b3000001be007d
:10130c000800be00a4fd07000000e000010035004d
:10131c000045eb000a04e0000300320040c0b300bb
:10132c00004f7800f10037006881800079818000df
:10133c0090808000cf80de00d7fd07001ac0b3007c
:10134c000001be000800be0093fd07000000e00095
:10135c00010035000045eb000a04e0001f003200dc
:10136c008881800099818000a0808000cf80de0081
:10137c00c9fd07001ac0b3000001be000800be0082
:10138c0085fd07000000e000010035000045eb0082
:10139c000a04e00011003200a8818000b9818000ad
:1013ac0090808000cf80de00bbfd07001ac0b30028
:1013bc000001be000800be0079fd07000000e0003f
:1013cc0001003c000045eb000a04e0000300320081
:1013dc0060c0b300004f7800c40037006881800003
:1013ec007981800090808000cf80de00aafd07000c
:1013fc001ac0b3000001be000800be0068fd070063
:10140c000000e00001003c000045eb000a04e00095
:10141c001f0032008881800099818000a0808000ac
:10142c00cf80de009cfd07001ac0b3000001be0097
:10143c000800be0058fd07000000e0000100350068
:10144c000045eb000a04e00011003200a881800086
:10145c00b981800090808000cf80de008efd070077
:10146c001ac0b3000001be000800be004afd070010
:10147c000000e000010035000045eb000a04e0002c
:10148c000300320050c0b300004f780097003700c3
:10149c00688180007981800090808000cf80de00a0
:1014ac007dfd07001ac0b3000001be000800be009d
:1014bc0039fd07000000e000010035000045eb009d
:1014cc000a04e0001f0032008881800099818000ae
:1014dc00a0808000cf80de006ffd07001ac0b30033
:1014ec000001be000800be002dfd07000000e0005a
:1014fc0001003c000045eb000a04e0001100320042
:10150c00a8818000b981800090808000cf80de00af
:10151c0061fd07001ac0b3000001be000800be0048
:10152c001ffd07000000e00001003c000045eb003f
:10153c000a04e0000300320020c0b300004f780022
:10154c006a0037006881800079818000908080007b
:10155c00cf80de0050fd07001ac0b3000001be00b2
:10156c000800be000efd07000000e00001003c007a
:10157c000045eb000a04e0001f0032008881800067
:10158c0099818000a0808000cf80de0042fd0700a2
:10159c001ac0b3000001be000800be0000fd070029
:1015ac000000e00001003c000045eb000a04e000f4
:1015bc0011003200a8818000b981800090808000e9
:1015cc00cf80de0034fd07001ac0b3000001be005e
:1015dc000800be00f0fc07000000e0000100350030
:1015ec000045eb000a04e0000300320010c0b30019
:1015fc00004f78003d003700888180009981800081
:10160c00a0808000cf80de0023fd07001ac0b3004d
:10161c000001be000800be00dffc07000000e00077
:10162c00010035000045eb000a04e0000300320025
:10163c0030c0b300004f78002c0037006881800068
:10164c007981800090808000cf80de0012fd070041
:10165c001ac0b3000001be000800be00d0fc070099
:10166c000000e00001003c000045eb000a04e00033
:10167c001e0032008881800099818000a08080004b
:10168c00cf80de0004fd07001ac0b3000001be00cd
:10169c000800be00c2fc07000000e00001003c0096
:1016ac000045eb000a04e00010003200a881800025
:1016bc00b981800090808000cf80de00f6fc0700ae
:1016cc001ac0b3000001be000800be00b4fc070045
:1016dc000000e00001003c000045eb000a04e000c3
:1016ec00020032000040eb00004f78001e407800f2
:1016fc000004e00005003a0020c0b30017f0b7006a
:10170c008000200046000700380037001e4078009b
:10171c00e24f500005003a0040c0b30017f0b7008c
:10172c00200020003e000700300037001e407800eb
:10173c00e14f500006003a0060c0b30017f0b7004c
:10174c00254ea800100020003500070027003700a8
:10175c001e407800e34f500005003a0080c0b300f3
:10176c0017f0b700300020002d0007001f003700d5
:10177c001e407800e64f500005003a0080c0b300d0
:10178c0017f0b700400020002500070017003700b5
:10179c001e407800e54f500005003a00a0c0b30091
:1017ac0017f0b700500020001d0007000f00370095
:1017bc001e407800e44f500005003a0080c0b30092
:1017cc0017f0b70060002000150007000700370075
:1017dc001e407800e74f500004003a0080c0b30070
:1017ec0017f0b700700020000d00070017d0bf00e5
:1017fc008080fb0016d0bf000080fb000000e900d9
:10180c00808f50000200320017d0bf0016f0b700d6
:10181c004f0578004f04be000080fa00000006005f
:10182c000200fa00000f78001e007800e40f500050
:10183c001e003200e40f500007003c00e20f500085
:10184c0012003200e20f500014003c00e10f500077
:10185c000a00320029003700e60f50001b0032004e
:10186c00e60f500015003500e70f50001b0032004a
:10187c00e80f50001d0032002000370064cea90094
:10188c0064eea900254ea8002000370064cea80005
:10189c0064eea900254ea9001c00370064cea900f7
:1018ac0064eea800254ea9001800370064cea800ed
:1018bc0064eea800254ea9001400370064cea900e0
:1018cc0064eea800254ea8001000370064cea800d6
:1018dc0064eea900254ea8000c00370064cea800c9
:1018ec0064eea800254ea8000800370064cea900bd
:1018fc0064eea900254ea9000400370064cea900af
:10190c0064eea900254ea900000000000080fa003a
:10191c00000006000400fa0013e1a90011e1a9007f
:10192c001061a8001021a90081088000f0fc2f0094
:10193c0000806000800888000a21ef000621ef007b
:10194c00404c20007008880000402b006008880084
:10195c00800880004400de00634060000081fb00d2
:10196c008001eb00700880008000eb00c002dd00fd
:10197c0004002000600880008000eb0004004000a0
:10198c0085804800809ab900828bb9008602780065
:10199c00050242000010b8000102420084007800e9
:1019ac000001be0000902000d1032000ebfb0700db
:1019bc0039fc0700008fbe002142800080ff2f0001
:1019cc00008060000000a000204288000108a900ef
:1019dc002108a80011e1a8000080fa000000060010
:1019ec000400fa00881f7800008fbe0021088000d8
:1019fc00f0fc2f0000806000200888001e01780099
:101a0c009e0190000068290081c1240091fb070011
:101a1c0018c0b30002f02f00f3772400e0fb07009e
:101a2c000000e00001003c000044eb000804e00072
:101a3c005400320021088000f0fc2f000080600070
:101a4c000040a000200888001e0178009e01900034
:101a5c000068290081c124007efb070002002000e1
:101a6c00031024007bfb070018c0b30002f02f000a
:101a7c00f3772400cafb07000000e00001003c00e3
:101a8c000044eb000804e000320032002108800022
:101a9c00f0fc2f00008060000050a000200888009f
:101aac001e0178009e0190000068290081c124006d
:101abc0068fb0700020020000328240065fb0700d8
:101acc0018c0b30002f02f00f3772400b4fb07001a
:101adc000000e00001003c000044eb000804e000c2
:101aec00100032002108800000032000010070006b
:101afc00200888001e0178009e01900000682900d3
:101b0c0081c1240053fb070002002000033824008d
:101b1c0050fb0700a4fb07000000780010088800a9
:101b2c00200037001e0178009e01900000682900fb
:101b3c0081c1240047fb0700020020000328240079
:101b4c0044fb070098fb0700000078001008880091
:101b5c00140037001e0178009e01900000682900d7
:101b6c0081c124003bfb070002002000031024006d
:101b7c0038fb07008cfb0700000078001008880079
:101b8c00080037001e0178009e01900000682900b3
:101b9c0081c124002ffb070083fb070000007800a5
:101bac00100888004f0478000080fa00000006003e
:101bbc000000fa00000020008124240088ff0700a8
:101bcc0005e1a9000421a9000068a9002068a8006b
:101bdc0005e1a8000080fa00000006000400fa00ed
:101bec00881f7800008fbe00f1088000f0fc2f00e9
:101bfc0000806000f00888001e0178009e019000b3
:101c0c000068290081c1240012fb070018c0b30032
:101c1c0002f02f00f377240061fb07000000e000c6
:101c2c0001003c000044eb000804e00054003200ca
:101c3c00f1088000f0fc2f00008060000040a00044
:101c4c00f00888001e0178009e01900000682900b1
:101c5c0081c12400fffa07000200200003102400b9
:101c6c00fcfa070018c0b30002f02f00f377240031
:101c7c004bfb07000000e00001003c000044eb00bf
:101c8c000804e00032003200f1088000f0fc2f0064
:101c9c00008060000050a000f00888001e01780051
:101cac009e0190000068290081c12400e9fa070018
:101cbc000200200003282400e6fa070018c0b30035
:101ccc0002f02f00f377240035fb07000000e00042
:101cdc0001003c000044eb000804e000100032005e
:101cec00f10880000003200001007000f00888005b
:101cfc001e0178009e0190000068290081c124001b
:101d0c00d4fa07000200200003382400d1fa07009f
:101d1c0025fb070000007800d00888002000370061
:101d2c001e0178009e0190000068290081c12400ea
:101d3c00c8fa07000200200003282400c5fa070097
:101d4c0019fb070000007800d00888001400370049
:101d5c001e0178009e0190000068290081c12400ba
:101d6c00bcfa07000200200003102400b9fa070097
:101d7c000dfb070000007800d00888000800370031
:101d8c001e0178009e0190000068290081c124008a
:101d9c00b0fa070004fb070000007800d0088800a8
:101dac004f0478000080fa00000006000000fa00e2
:101dbc0000002000a147240088ff07001fe1a900b4
:101dcc001e21a9000368a9002368a8001fe1a80030
:101ddc000080fa00000006000000fa00116080008c
:101dec0080ff2f00008060001060880000fa200047
:101dfc002060880023aca800238ca800116180000f
:101e0c00f03f2f000080600000a0a000106188004f
:101e1c003000200020618800c3aca800c38ca8004f
:101e2c0011668000f03f2f000080600000a0a00031
:101e3c0010668800300020002066880001eca800a5
:101e4c000080fa00000006000600fa00008fbe00b9
:101e5c00424798004e4090000004e00005003a0014
:101e6c001e0178009e019000228188003381880039
:101e7c00070037004e409000e14f500004003a003c
:101e8c001e0178009e019000e2808800f38088009b
:101e9c000080fa00000006000000fa00889fbe00d7
:101eac008a9fbe0044818000558180002081800083
:101ebc003181800018c0b3000001be000400be00d8
:101ecc00b5fa07000000e000010035000044eb000b
:101edc000804e0000f003200288180003981800066
:101eec004a8180005b81800018d0bf000080fb001d
:101efc00cf80de00e8fa07000001be000a00be0039
:101f0c00f7f907000801be00bc00070040818800fb
:101f1c00518188004481800055818000208180009f
:101f2c003181800018c0b3000001be000400be0067
:101f3c009bfa07000000e00001003c000044eb00ad
:101f4c000804e0000f0032002881800039818000f5
:101f5c004a8180005b81800018d0bf000080fb00ac
:101f6c00cf80de00ccfa07000001be000a00be00e4
:101f7c00daf907000801be008800070040818800dc
:101f8c0051818800408180005181800018c0b300cd
:101f9c006011b80082fa07000000e00001003c006c
:101fac000044eb000804e00004003200c3eca9007c
:101fbc0024cea800c3cca80003003700c3cca900d2
:101fcc0024eea800c3eca800408180005181800061
:101fdc005c000700020020000322240006fb07001f
:101fec0092fa0700000078003066880004818000b7
:101ffc0015818000e0808000f180800018c0b30063
:10200c000001be000400be0063fa07000000e000ff
:10201c00010035000044eb000804e0000f00320022
:10202c00e8808000f98080000a8180001b8180009c
:10203c0018d0bf000080fb00cf80de0096fa0700ae
:10204c000001be000a00be00a5f907000801be0091
:10205c006a000700008188001181880004818000db
:10206c0015818000e0808000f180800018c0b300f2
:10207c000001be000400be0049fa07000000e000a9
:10208c0001003c000044eb000804e0000f003200ab
:10209c00e8808000f98080000a8180001b8180002c
:1020ac0018d0bf000080fb00cf80de007afa07005a
:1020bc000001be000a00be0088f907000801be003e
:1020cc0036000700008188001181880000818000a3
:1020dc001181800018c0b3006011b80030fa0700fd
:1020ec000000e00001003c000044eb000804e000ac
:1020fc000400320023cca90015eea80023eca800a4
:10210c000300370023eca90015cea80023cca800af
:10211c0000818000118180000a000700020020006d
:10212c0003222400b4fa070040fa070000007800ec
:10213c00306188004f05be004f04be000080fa00dd
:10214c00000006000400fa00881f7800008fbe0013
:10215c0018c0b3006011b8001e0078009e009000fb
:10216c000ffa07000000e00001003d000044eb0006
:10217c000804e000030032001e0078009e0090006e
:10218c00030037001e0078009e00900001f0a200b2
:10219c004f0478000080fa00000006000800fa00e6
:1021ac00881f7800008fbe00220798003307980024
:1021bc0018c0b3002e019000be0190001e007800e4
:1021cc009e009000f6f907000000e00001003c00c2
:1021dc000044eb000804e000030032001e0078000d
:1021ec009e009000020037002e009000be00900070
:1021fc004f0478000080fa00000006000800fa0086
:10220c00881f7800008fbe002207980033079800c3
:10221c0018c0b3002e019000be0190001e00780083
:10222c009e009000dcf907000000e0000100350082
:10223c000044eb000804e000030032001e007800ac
:10224c009e009000020037002e009000be0090000f
:10225c004f0478000080fa00000006000c00fa0021
:10226c00881f7800008fbe00220798003307980063
:10227c00440798005507980018c0b3004e01900011
:10228c00de0190001e0078009e009000c4f907004b
:10229c000000e00001003c000044eb000804e000fa
:1022ac00040032004e019000de019000028fbe004f
:1022bc000e00370018c0b3002e019000be01900034
:1022cc001e0078009e009000b3f907000000e000ab
:1022dc00010035000044eb000804e000030032006c
:1022ec002e019000be019000028fbe001e007800ef
:1022fc009e0090004f0478000080fa000000060059
:10230c000400fa00008fbe00b2fd200093042400ec
:10231c001e0078009e0090004ef90700020020007d
:10232c004333240034fa07000080fa000000060052
:10233c000400fa00008fbe00b2fd200093042400bc
:10234c001e0078009e0090002bfa0700020020006f
:10235c00433324003ff907000080fa000000060018
:10236c000000fa0021e3a9002143a8000119800014
:10237c00f0cf2f0000806000001988002043a900d6
:10238c0001198000000e2000010070000019880067
:10239c0011198000f0ff21000080600010198800e6
:1023ac002343a80011198000f0cf2f00008060009b
:1023bc00101988001119800030f82f00008060007f
:1023cc000030a000101988002203a9002223a900c4
:1023dc0025e3a900f0c0b30024e3b7002119800065
:1023ec00f00f2e008080600000f0200001007000d3
:1023fc00201988003303a9002e0ea8002f6ea80008
:10240c006f2ea80030c3a8003163a8002e03a800cb
:10241c004119800000fc2f000080600040198800ea
:10242c0028e3a90001a8a90021a8a80021e3a8007d
:10243c000080fa00000006000000fa002023a8002b
:10244c000080fa00000006000000fa0020002100c5
:10245c000080fa00000006000000fa000ad0bf005d
:10246c000080fa00000006000000fa000a70ef007d
:10247c000080fa00000006000000fa00f0032000c3
:10248c00303a8800213a8000f0f32f000080600081
:10249c00203a8800213a800000fe2f000080600066
:1024ac000000a000203a88001200200080072000c5
:1024bc00a1092000337420008049780081497800fc
:1024cc0082497800103a8000000178000200a000d8
:1024dc0060042000710520002374200080497800de
:1024ec00814978008249780000000000113a800090
:1024fc00000027008080600000002100808f5000c9
:10250c00faff3a0000000000113a8000000220009f
:10251c00008060000000e000fbff32000080fa0049
:04252c0000000600a5
:020000040000fa
:1025300016100000020000008000000012100000d1
:10254000040000008200000014001e0000000000d3
:102550000c10000006000000800000001a100000af
:10256000260000008000000018100000020000009b
:10257000820000000a000000001000000c000000b3
:082580008000000000000000d3
:020000040000fa
:102588000000fa000e2eef001e2eef002e2eef0098
:102598003e2eef004e2eef005e2eef006e2eef0067
:1025a800214ea90060cea90060eea90011cea900b5
:1025b80011eea90020cea90020eea9000080fa00a3
:0425c8000000060009
:020000040000fa
:02000004000af0
:04afe000cfff00009f
:020000040000fa
:02000004000af0
:04afe400ffff00006b
:020000040000fa
:02000004000af0
:04afe8007fff0000e7
:020000040000fa
:02000004000af0
:04afec005fff000003
:020000040000fa
:02000004000af0
:04aff00038ff000026
:020000040000fa
:02000004000af0
:04aff400ffff00005b
:00000001FF
