:020000040000fa
:080000000002040000000000f2
:020000040000fa
:040008007a03000077
:020000040000fa
:04000c007a03000073
:020000040000fa
:040010007a0300006f
:020000040000fa
:040014007a0300006b
:020000040000fa
:040018007a03000067
:020000040000fa
:04001c007a03000063
:020000040000fa
:040020007a0300005f
:020000040000fa
:040024007a0300005b
:020000040000fa
:040028007a03000057
:020000040000fa
:04002c007a03000053
:020000040000fa
:040030007a0300004f
:020000040000fa
:0400340002030000c3
:020000040000fa
:040038007a03000047
:020000040000fa
:04003c007a03000043
:020000040000fa
:040040007a0300003f
:020000040000fa
:040044007a0300003b
:020000040000fa
:04004800fa020000b8
:020000040000fa
:04004c007a03000033
:020000040000fa
:040050007a0300002f
:020000040000fa
:040054007a0300002b
:020000040000fa
:040058007a03000027
:020000040000fa
:04005c004c03000051
:020000040000fa
:040060007a0300001f
:020000040000fa
:040064007a0300001b
:020000040000fa
:040068007a03000017
:020000040000fa
:04006c007a03000013
:020000040000fa
:040070007a0300000f
:020000040000fa
:040074007a0300000b
:020000040000fa
:040078007a03000007
:020000040000fa
:04007c007a03000003
:020000040000fa
:040080007a030000ff
:020000040000fa
:040084007a030000fb
:020000040000fa
:040088007a030000f7
:020000040000fa
:04008c007a030000f3
:020000040000fa
:040090007a030000ef
:020000040000fa
:040094002203000043
:020000040000fa
:040098007a030000e7
:020000040000fa
:04009c007a030000e3
:020000040000fa
:0400a0007a030000df
:020000040000fa
:0400a4007a030000db
:020000040000fa
:0400a8007a030000d7
:020000040000fa
:0400ac007a030000d3
:020000040000fa
:0400b0007a030000cf
:020000040000fa
:0400b4007a030000cb
:020000040000fa
:0400b8007a030000c7
:020000040000fa
:0400bc007a030000c3
:020000040000fa
:0400c0007a030000bf
:020000040000fa
:0400c4007a030000bb
:020000040000fa
:0400c8007a030000b7
:020000040000fa
:0400cc007a030000b3
:020000040000fa
:0400d0007a030000af
:020000040000fa
:0400d4007a030000ab
:020000040000fa
:0400d8007a030000a7
:020000040000fa
:0400dc007a030000a3
:020000040000fa
:0400e0007a0300009f
:020000040000fa
:0400e4007a0300009b
:020000040000fa
:0400e8007a03000097
:020000040000fa
:0400ec007a03000093
:020000040000fa
:0400f0007a0300008f
:020000040000fa
:0400f4007a0300008b
:020000040000fa
:0400f8007a03000087
:020000040000fa
:0400fc007a03000083
:020000040000fa
:040100007a0300007e
:020000040000fa
:040104007a0300007a
:020000040000fa
:040108007a03000076
:020000040000fa
:04010c007a03000072
:020000040000fa
:040110007a0300006e
:020000040000fa
:040114007a0300006a
:020000040000fa
:040118007a03000066
:020000040000fa
:04011c007a03000062
:020000040000fa
:040120007a0300005e
:020000040000fa
:040124007a0300005a
:020000040000fa
:040128007a03000056
:020000040000fa
:04012c007a03000052
:020000040000fa
:040130007a0300004e
:020000040000fa
:040134007a0300004a
:020000040000fa
:040138007a03000046
:020000040000fa
:04013c007a03000042
:020000040000fa
:040140007a0300003e
:020000040000fa
:040144007a0300003a
:020000040000fa
:040148007a03000036
:020000040000fa
:04014c007a03000032
:020000040000fa
:040150007a0300002e
:020000040000fa
:040154007a0300002a
:020000040000fa
:040158007a03000026
:020000040000fa
:04015c007a03000022
:020000040000fa
:040160007a0300001e
:020000040000fa
:040164007a0300001a
:020000040000fa
:040168007a03000016
:020000040000fa
:04016c007a03000012
:020000040000fa
:040170007a0300000e
:020000040000fa
:040174007a0300000a
:020000040000fa
:040178007a03000006
:020000040000fa
:04017c007a03000002
:020000040000fa
:040180007a030000fe
:020000040000fa
:040184007a030000fa
:020000040000fa
:040188007a030000f6
:020000040000fa
:04018c007a030000f2
:020000040000fa
:040190007a030000ee
:020000040000fa
:040194007a030000ea
:020000040000fa
:040198007a030000e6
:020000040000fa
:04019c007a030000e2
:020000040000fa
:0401a0007a030000de
:020000040000fa
:0401a4007a030000da
:020000040000fa
:0401a8007a030000d6
:020000040000fa
:0401ac007a030000d2
:020000040000fa
:0401b0007a030000ce
:020000040000fa
:0401b4007a030000ca
:020000040000fa
:0401b8007a030000c6
:020000040000fa
:0401bc007a030000c2
:020000040000fa
:0401c0007a030000be
:020000040000fa
:0401c4007a030000ba
:020000040000fa
:0401c8007a030000b6
:020000040000fa
:0401cc007a030000b2
:020000040000fa
:0401d0007a030000ae
:020000040000fa
:0401d4007a030000aa
:020000040000fa
:0401d8007a030000a6
:020000040000fa
:0401dc007a030000a2
:020000040000fa
:0401e0007a0300009e
:020000040000fa
:0401e4007a0300009a
:020000040000fa
:0401e8007a03000096
:020000040000fa
:0401ec007a03000092
:020000040000fa
:0401f0007a0300008e
:020000040000fa
:0401f4007a0300008a
:020000040000fa
:0401f8007a03000086
:020000040000fa
:0401fc007a03000082
:020000040000fa
:040200007a0300007d
:020000040000fa
:040204007a03000079
:020000040000fa
:040208007a03000075
:020000040000fa
:04020c007a03000071
:020000040000fa
:040210007a0300006d
:020000040000fa
:040214007a03000069
:020000040000fa
:040218007a03000065
:020000040000fa
:04021c007a03000061
:020000040000fa
:040220007a0300005d
:020000040000fa
:040224007a03000059
:020000040000fa
:040228007a03000055
:020000040000fa
:04022c007a03000051
:020000040000fa
:040230007a0300004d
:020000040000fa
:040234007a03000049
:020000040000fa
:040238007a03000045
:020000040000fa
:04023c007a03000041
:020000040000fa
:040240007a0300003d
:020000040000fa
:040244007a03000039
:020000040000fa
:040248007a03000035
:020000040000fa
:04024c007a03000031
:020000040000fa
:040250007a0300002d
:020000040000fa
:040254007a03000029
:020000040000fa
:040258007a03000025
:020000040000fa
:04025c007a03000021
:020000040000fa
:040260007a0300001d
:020000040000fa
:040264007a03000019
:020000040000fa
:040268007a03000015
:020000040000fa
:04026c007a03000011
:020000040000fa
:040270007a0300000d
:020000040000fa
:040274007a03000009
:020000040000fa
:040278007a03000005
:020000040000fa
:04027c007a03000001
:020000040000fa
:040280007a030000fd
:020000040000fa
:10040000ef0421000eff2c000e0188000000000008
:10041000000020000000e000020032000001200087
:100420002002880014000700b40007000000e0006c
:1004300003003a00806f2100010020000200370015
:100440000000200001002000810f70000100320038
:100450000f000700000020000000e0000200320052
:1004600000000200000000004a0702000000000037
:100470000040da000000fe00200020000000e00044
:1004800002003200100020009001880000000600e9
:10049000a1028800800478000000eb001f003700f4
:1004a000e284440054a0b4009905ba00e2844400f8
:1004b00054a0b4009906ba00e284440054a0b400e9
:1004c0000006eb00476fde00fd07b200ae018800ba
:1004d000636ce10003003a000ad801000000eb0061
:1004e0000e003700606ce10008003a00004deb00a0
:1004f0000a05e800020039003420ec000af0a000f0
:100500008b05e900f9ff3e00040037006168e10057
:10051000010032000086eb000b00070019c7ba008b
:100520000e04e0001905ba0003003a000a00e000da
:10053000dbff3a0000000600fe07b200ae028800b2
:100540008a047800f5ff37000cd0a300e20f4d00bd
:100550001c00390089027800354dba000a05e80010
:10056000020039003420ec000af0a0008b05e900fd
:100570000f003200254dba000a05e80002003900dc
:100580003420ec000af0a0008b05e90008003200de
:100590000c00e0000600320015cdba000a05e800a4
:1005a000020039003420ec000af0a0008b05e900bd
:1005b0008984e80054a0b4000b00e000e2ff3a0098
:1005c000000006009902ba00055d78008b05e9007d
:1005d000f7ff3200c82ade00055d78008b05e900d0
:1005e000f3ff32000c00e000f1ff320019ddba0029
:1005f000eeff37000000fa000108a9000080fa00b1
:10060000004006003600f800809fbe00829fbe00ba
:10061000849fbe00869fbe000000fa000068a9000b
:100620004c080700b70907000080fa004f03be001e
:100630004f02be004f01be004f00be003600f90061
:10064000004006003600f800809fbe00829fbe007a
:10065000849fbe00869fbe000000fa000368a900c8
:10066000008180001181800061004000e08048002e
:1006700000818800118188009a0207000080fa003a
:100680004f03be004f02be004f01be004f00be0030
:100690003600f90000400600809fbe000000fa000e
:1006a00001a8a90001188000e000210001087800dd
:1006b00011188000e000210011009800211880002e
:1006c000e00021002100980031188000e0002100a6
:1006d0003100980041188000e0002100410098009e
:1006e00010c0b30016f0b7000080fa004f00be0043
:1006f000004006000040da000000fe000000050097
:1007000003f0a200889fbe008a9fbe008c1f780065
:100710002a010700310133006450e1004f0032002c
:100720006420e1005200320003826c0007003b00ad
:100730000905d0000306d000820f54000c065d00ae
:1007400002003900020032008901780003067800b7
:100750008582550004003d000003fd008103fd007b
:100760008502ea008b854200840f720002003b0084
:1007700060001000e08018006011b8000005eb0078
:100780007a28e1000a00390006007800c75ddd0024
:10079000f707b200878075002d0037008281710055
:1007a0000a017800610560008180d1000080d300db
:1007b0008502e900f9ff3b000604400087844800f9
:1007c00002003b0060041400e0841c000988a300c0
:1007d000070032008a81710082817100610164002a
:1007e0008904d1000884d3008b05e8001700370086
:1007f0000978a30013003a000b00e0001300340056
:100800008b05e9000804440089844c000a44740004
:100810000978a3000d003a000b00e0000700340047
:100820008b05e9000804440089844c0001003a006b
:100830000b0020000978a300f7ff32000001eb0055
:1008400002003700828171000a017800a0000700d1
:100850000cf0a70001f0a000e90037006420e100df
:1008600002003a00838f6c00e90033000801be00eb
:100870000200be00e2003700889fbe008a9fbe00d3
:100880008c1f7800cd000700d400330003866c0075
:100890006450e1002e0032006420e1003300320099
:1008a0006150e1002f0032006120e1003100320090
:1008b00085855500eb07b0000900200008042000e2
:1008c000050037000804440089844c000a00310008
:1008d0000603430087834b000001530081815b00c6
:1008e000f8ff33000203be000800a0000804440023
:1008f00089844c00f6ff3900c639dd00830173009e
:1009000001003200130020008904d1000884d300c4
:100910000998a300050032000800a7000300a0000a
:100920008904d1000884d3008b05e8008904d10034
:100930000884d3000001eb000281d20064000700ac
:1009400001f0a1000cf0a70001f0a000ac003700fe
:100950006420e100ae0032000801be000200be00cb
:10096000f7ff37006120e100a90032006000b80005
:10097000f3ff37000000200001f82700f0ff3700e8
:10098000839f68000100e00002003d00600010004d
:10099000e08018000300e00002003d00600111004b
:1009a000e0811900d10007004f00e00002003b0089
:1009b00060001000e0801800000006001400200015
:1009c000da003700f4ff2f00d80037000001be0026
:1009d000650007000470a70003f0a1006509b100dd
:1009e000160032000d0035006828e10006003500d1
:1009f000f0ff2f00f1ff27000300e00013003b0091
:100a0000010028000000050000004000818048002f
:100a10008502e900fcff3a0008003700f88f420029
:100a200002003c008000eb00000005008100d100c6
:100a30000080d3008502e800fcff3a000300e000dc
:100a400002003b0060001000e0801800000006007b
:100a50000001be00440007000470a70003f0a100dd
:100a600003f8a30013003a006509b100100032003a
:100a7000090035006928e100020035000100280066
:100a80000000050000004000818048008502e90068
:100a9000fcff3a0000000600f88f42000500350018
:100aa0008100d1000080d3008502e800fcff3a00fd
:100ab000000006008000eb00000005004f89de000a
:100ac00082017800b40037006011b800c20037001e
:100ad00081002000618055000b003d000b002000cc
:100ae00061fe2f000100e1001d00340082817100d1
:100af000610164008904d1000884d3000000e8008b
:100b0000faff3a00710020006100640003007000e9
:100b1000020060000900320061044400e0844c00df
:100b20000988a500050032008b05e8006808e1008f
:100b300002003a008904d1000884d300f20f20009b
:100b40000258e10005003d00c75ddd00f907b20075
:100b50008980750008007800000006000bf8270067
:100b60008b00780000000500c70ade00f107b20024
:100b7000f50fb20008003200e1cf4200020032005f
:100b80000170a00024000500810f700001003200f8
:100b90000408050044000500810f700002003a00bf
:100ba000140005008502e9000000400081c04800f3
:100bb000fcff3b000170a000240005000004be0003
:100bc000e9ff07000003be000405be000200be00ee
:100bd000e5ff0700844f7500000006000200be001c
:100be0006450e100050036006420e1000200360098
:100bf0000968a30001003a000800be000160a000df
:100c00004f0678004f05be004f04be0000000600ee
:100c1000f0ff2f00f1ff2700f9ff3700889fbe008b
:100c20008a9fbe008c1f7800e4ff0700ebff3300b3
:100c300003866c006450e100240032006420e1006f
:100c4000270032006150e100220032006120e10003
:100c5000210032008b854200eb07b1000134b8005f
:100c6000003ab8000804420089844a00013ab800fa
:100c70000030b8008880400009014a0004003300b9
:100c80000000400081804800020149008b05e90016
:100c9000c909dd008301700001003200130020004b
:100ca000c814de004814dd004709de001200b2005f
:100cb000c808de000884700085ff070001f0a1006d
:100cc0000cf0a70001f0a000cdff37006120e1008b
:100cd000cfff32000801be000200be00f7ff370060
:100ce0006150e100fcff3a00c9ff37006022b80004
:100cf000060220000000d0008180d2000482d200d1
:100d00008582d2000000a0000202520083825a00b5
:100d1000030031000202420083824a000000a10069
:100d20000603e900f3ff3a0000000600889fbe00ba
:100d30008a9fbe00841f7800a0ff07004f00780044
:100d400011003300f0ff2f00838f6c0006003b0082
:100d5000040565000a00a7000800370009f0a60096
:100d60001000200008003700820f5400838f5c00c1
:100d7000030039001000200001003e0000002000a8
:100d800009f0a7000000ea004f05be004f04be00b6
:100d90000000e00000000600881f780003047800cf
:100da0000300e00007003d0060001000e080180034
:100db00060011900e081190002003b0001f02d00e4
:100dc000030037000400070008f0a70001f0a000ae
:100dd0004f04780000000600889fbe008a9fbe0076
:100de000008270000402710004827100260032004b
:100df0000004be000200be006011b8006b092000b4
:100e0000950220000182cf000a0039000541b1009f
:100e10000082cf00070039000541b1000982cf00f0
:100e2000040039000541b1000882cf0001003900fb
:100e30000541b10005425200120032000a003b0099
:100e400082817100610164008100d1000080d300c3
:100e50008984d3000884d3008b05e8000442e800ad
:100e6000f7ff3a00070037000804440089844c006b
:100e700000004800818048008b05e9000442e90039
:100e8000f9ff3a0012ff07004f05be004f04be00f5
:040e90000000060058
:020000040000fa
:100e94000800fa00aa070700ec070700cb040700c4
:100ea40071050700fa0507005b070700ed05070059
:100eb400010037000000000095070700000f7800cc
:100ec40097070700e14f5000faff3a009807070020
:100ed4008f070700100798001e009000680040006c
:100ee400100078008000eb00f6fe07003233230088
:100ef4003305240048ff07000200200003582400a3
:100f04005cfe0700d2cc2c00c304240042ff07007f
:100f140020079800310798002e019000be01900030
:100f2400000020008120240052fe0700020020005f
:100f3400030a2400f1fd0700d0818800e1818800c4
:100f44001e00900066004000100078008000eb0056
:100f5400dcfe070032332300330524002eff070094
:100f6400020020000358240042fe0700d2cc2c00cb
:100f7400c304240028ff07002007980031079800c5
:100f84002e019000be01900000002000812024006a
:100f940038fe070002002000030a2400d7fd0700e2
:100fa40030828800418288001e0090006400400066
:100fb400100078008000eb00c2fe070032332300eb
:100fc4003305240014ff0700020020000358240006
:100fd40028fe0700d2cc2c00c30424000eff070017
:100fe40020079800310798002e019000be01900060
:100ff40000002000812024001efe070002002000c3
:10100400030a2400bdfd0700f081880001828800e6
:101014001e0090000080e800100078008000eb00c3
:10102400a8fe07003233230033052400fafe07002c
:1010340002002000035824000efe0700d2cc2c002e
:10104400c3042400f4fe0700200798003107980029
:101054002e019000be019000000020008120240099
:1010640004fe070002002000030a2400a3fd070079
:1010740010828800218288001e00900010007800f1
:101084008000eb008ffe0700323323003305240079
:10109400e1fe07000200200003582400f5fd0700cc
:1010a400d2cc2c00c3042400dbfe070020079800e8
:1010b400310798002e019000be019000000020002e
:1010c40081202400ebfd070002002000030a240015
:1010d4008afd0700508288006182880076ff37000d
:1010e4000000fa0018d0bf000080fb00cf80de00b3
:1010f4007201200003002000820f5000838f5800eb
:10110400b4003e000006010017003700200037003d
:101114002900370035003700360037003f0037001c
:1011240040003700490037004a00370054003700b8
:10113400550037005f003700a6003700a5003700d0
:10114400a4003700a30037005c00370066003700b6
:101154006700370071003700720037007e003700e7
:1011640093003700850037002030ef002230ef0075
:101174000041eb006000b8006105070012c0b30035
:101184006000b8005e05070010c0b30018f0b70097
:101194000281800013818000803e20000100200035
:1011a400800f5100818f59008d00360020c0b3009c
:1011b40018f0b7008f003700d0808000cf80de00a9
:1011c4003dfe07000041eb004d050700d080800084
:1011d400cf80de0038fe070012c0b30048050700c8
:1011e40030c0b30018f0b700820037008300070056
:1011f400800037000041eb006000b80040050700a4
:1012040012c0b30000002000011524003c050700b3
:1012140050c0b30018f0b70076003700770007001d
:10122400740037000041eb00000020000115240089
:101234003305070012c0b3006000b8003005070092
:1012440070c0b30018f0b7006a0037006b000700e5
:10125400680037000041eb000000200001152c005d
:101264002705070012c0b300000020000115240068
:101274002305070090c0b30018f0b7005d003700e5
:101284005e0007005b0037000041eb000000200017
:10129400011524001a05070012c0b3000000200045
:1012a40001152c0016050700b0c0b30018f0b700f4
:1012b40050003700510007004e0037000041eb009a
:1012c40000002000010a2c000d05070012c0b30025
:1012d40000002000011524000905070010c1b30017
:1012e40018f0b700430037004400070041003700fe
:1012f4000041eb0000002000011524000005070058
:1013040012c0b30000002000010a2c00fc040700f6
:1013140030c1b30018f0b7003600370037000700bb
:10132400340037002030ef002230ef000041eb00a2
:1013340000002000011a2400f104070012c0b300c9
:1013440000002000011a2c00ed04070050c1b30076
:1013540018f0b70027003700008080006101b90051
:101364000081800011818000800f5100818f59001d
:101374001d003100210007001e0037002030ef005f
:101384002230ef000041eb0000002000011a24008d
:10139400db04070012c0b30000002000011a2c0077
:1013a400d704070060c1b30018f0b700110037007c
:1013b400008080006101b9000081800011818000fb
:1013c400800f5100818f5900090031000b00070084
:1013d400080037001870ef00000000000500370017
:1013e4000000000003003700000000000100370087
:1013f400000000000080fa00000006000200fa006d
:10140400889fbe008a1f78000040eb00004f7800e0
:10141400588280006982800040808000cf80de0096
:10142400a5fd07001ac0b3000001be000800be00fd
:1014340061fd07000000e000010035000045eb00fd
:101444000a04e00003003200b0c0b300004f78008b
:101454008202370038828000498280004080800008
:10146400cf80de0094fd07001ac0b3000001be0067
:101474000800be0050fd07000000e0000100350038
:101484000045eb000a04e00003003200a0c0b300f2
:10149400004f780071023700588280006982800012
:1014a40030808000cf80de0083fd07001ac0b300c7
:1014b4000001be000800be003ffd07000000e00080
:1014c400010035000045eb000a04e0003b00320057
:1014d400d8818000e981800010808000cf80de0008
:1014e40075fd07001ac0b3000001be000800be006d
:1014f40033fd07000000e00001003c000045eb0064
:101504000a04e0002d003200f88180000982800086
:1015140020808000cf80de0067fd07001ac0b30082
:101524000001be000800be0025fd07000000e00029
:1015340001003c000045eb000a04e0001f003200fb
:10154400188280002982800010808000cf80de0015
:1015540059fd07001ac0b3000001be000800be0018
:1015640017fd07000000e00001003c000045eb000f
:101574000a04e000110032003882800049828000b1
:1015840030808000cf80de004bfd07001ac0b3001e
:101594000001be000800be0009fd07000000e000d5
:1015a40001003c000045eb000a04e00003003200a7
:1015b400b0c0b300004f7800280237005882800082
:1015c4006982800030808000cf80de003afd070011
:1015d4001ac0b3000001be000800be00f8fc0700fa
:1015e4000000e00001003c000045eb000a04e000bc
:1015f4003b003200d8818000e981800010808000a7
:10160400cf80de002cfd07001ac0b3000001be002d
:101614000800be00eafc07000000e00001003c00f6
:101624000045eb000a04e0002d003200f881800040
:101634000982800020808000cf80de001efd07002c
:101644001ac0b3000001be000800be00dcfc0700a5
:101654000000e00001003c000045eb000a04e0004b
:101664001f003200188280002982800010808000d0
:10167400cf80de0010fd07001ac0b3000001be00d9
:101684000800be00cefc07000000e00001003c00a2
:101694000045eb000a04e0001100320038828000ab
:1016a4004982800030808000cf80de0002fd070088
:1016b4001ac0b3000001be000800be00befc070053
:1016c4000000e000010035000045eb000a04e000e2
:1016d40003003200a0c0b300004f7800df013700e0
:1016e400388280004982800030808000cf80de0014
:1016f400f1fc07001ac0b3000001be000800be00e0
:10170400adfc07000000e000010035000045eb00df
:101714000a04e0003b0032005882800069828000a5
:1017240030808000cf80de00e3fc07001ac0b300e5
:101734000001be000800be00a1fc07000000e0009c
:1017440001003c000045eb000a04e0002d003200db
:10175400d8818000e981800010808000cf80de0085
:10176400d5fc07001ac0b3000001be000800be008b
:1017740093fc07000000e00001003c000045eb0082
:101784000a04e0001f003200f88180000982800012
:1017940020808000cf80de00c7fc07001ac0b300a1
:1017a4000001be000800be0085fc07000000e00048
:1017b40001003c000045eb000a04e0001100320087
:1017c400188280002982800010808000cf80de0093
:1017d400b9fc07001ac0b3000001be000800be0037
:1017e40077fc07000000e00001003c000045eb002e
:1017f4000a04e00003003200a0c0b300004f7800e8
:101804009601370038828000498280003080800051
:10181400cf80de00a8fc07001ac0b3000001be00a0
:101824000800be0066fc07000000e00001003c0068
:101834000045eb000a04e0003b00320058828000bf
:101844006982800030808000cf80de009afc07002f
:101854001ac0b3000001be000800be0056fc070019
:101864000000e000010035000045eb000a04e00040
:101874002d003200d8818000e98180001080800032
:10188400cf80de008cfc07001ac0b3000001be004c
:101894000800be004afc07000000e00001003c0014
:1018a4000045eb000a04e0001f003200f8818000cc
:1018b4000982800020808000cf80de007efc07004b
:1018c4001ac0b3000001be000800be003cfc0700c3
:1018d4000000e00001003c000045eb000a04e000c9
:1018e400110032001882800029828000108080005c
:1018f400cf80de0070fc07001ac0b3000001be00f8
:101904000800be002efc07000000e00001003c00bf
:101914000045eb000a04e00003003200b0c0b3004d
:10192400004f78004d013700d8818000e9818000a4
:1019340010808000cf80de005ffc07001ac0b30077
:101944000001be000800be001bfc07000000e00010
:10195400010035000045eb000a04e0001f003200de
:10196400f88180000982800020808000cf80de0022
:1019740051fc07001ac0b3000001be000800be00fd
:101984000dfc07000000e000010035000045eb00fd
:101994000a04e000110032001882800029828000cd
:1019a40010808000cf80de0043fc07001ac0b30023
:1019b4000001be000800be00fffb07000000e000bd
:1019c400010035000045eb000a04e000030032008a
:1019d40070c0b300004f780020013700d881800028
:1019e400e981800010808000cf80de0032fc070097
:1019f4001ac0b3000001be000800be00eefb0700e1
:101a04000000e000010035000045eb000a04e0009e
:101a14001f003200f881800009828000208080004d
:101a2400cf80de0024fc07001ac0b3000001be0012
:101a34000800be00e2fb07000000e00001003c00db
:101a44000045eb000a04e000110032001882800017
:101a54002982800010808000cf80de0016fc070001
:101a64001ac0b3000001be000800be00d2fb07008c
:101a74000000e000010035000045eb000a04e0002e
:101a84000300320040c0b300004f7800f300370079
:101a9400d8818000e981800010808000cf80de0042
:101aa40005fc07001ac0b3000001be000800be0018
:101ab400c1fb07000000e000010035000045eb0019
:101ac4000a04e0001f003200f881800009828000cf
:101ad40020808000cf80de00f7fb07001ac0b3002f
:101ae4000001be000800be00b3fb07000000e000d8
:101af400010035000045eb000a04e000110032004b
:101b0400188280002982800010808000cf80de004f
:101b1400e9fb07001ac0b3000001be000800be00c4
:101b2400a7fb07000000e00001003c000045eb00bb
:101b34000a04e0000300320060c0b300004f7800e4
:101b4400c6003700d8818000e981800010808000c1
:101b5400cf80de00d8fb07001ac0b3000001be002e
:101b64000800be0096fb07000000e00001003c00f6
:101b74000045eb000a04e0001f003200f8818000f9
:101b84000982800020808000cf80de00cafb07002d
:101b94001ac0b3000001be000800be0086fb0700a7
:101ba4000000e000010035000045eb000a04e000fd
:101bb4001100320018828000298280001080800089
:101bc400cf80de00bcfb07001ac0b3000001be00da
:101bd4000800be0078fb07000000e00001003500ab
:101be4000045eb000a04e0000300320050c0b300db
:101bf400004f780099003700d8818000e981800087
:101c040010808000cf80de00abfb07001ac0b30059
:101c14000001be000800be0067fb07000000e000f2
:101c2400010035000045eb000a04e0001f0032000b
:101c3400f88180000982800020808000cf80de004f
:101c44009dfb07001ac0b3000001be000800be00df
:101c54005bfb07000000e00001003c000045eb00d6
:101c64000a04e000110032001882800029828000fa
:101c740010808000cf80de008ffb07001ac0b30005
:101c84000001be000800be004dfb07000000e0009c
:101c940001003c000045eb000a04e00003003200b0
:101ca40020c0b300004f78006c003700d88180005a
:101cb400e981800010808000cf80de007efb070079
:101cc4001ac0b3000001be000800be003cfb0700c0
:101cd4000000e00001003c000045eb000a04e000c5
:101ce4001f003200f881800009828000208080007b
:101cf400cf80de0070fb07001ac0b3000001be00f5
:101d04000800be002efb07000000e00001003c00bc
:101d14000045eb000a04e000110032001882800044
:101d24002982800010808000cf80de0062fb0700e3
:101d34001ac0b3000001be000800be001efb07006d
:101d44000000e000010035000045eb000a04e0005b
:101d54000300320010c0b300004f78003f0037008a
:101d6400f88180000982800020808000cf80de001e
:101d740051fb07001ac0b3000001be000800be00fa
:101d84000dfb07000000e000010035000045eb00fa
:101d94000a04e0000300320030c0b300004f7800b2
:101da4002e003700d8818000e981800010808000f7
:101db400cf80de0040fb07001ac0b3000001be0064
:101dc4000800be00fefa07000000e00001003c002d
:101dd4000045eb000a04e00020003200f881800096
:101de4000982800020808000cf80de0032fb070063
:101df4001ac0b3000001be000800be00f0fa0700dc
:101e04000000e00001003c000045eb000a04e00093
:101e14001200320018828000298280001080800025
:101e2400cf80de0024fb07001ac0b3000001be000f
:101e34000800be00e2fa07000000e00001003c00d8
:101e44000045eb000a04e000040032000040eb000f
:101e5400004f7800100020005080880050808000df
:101e64000000e00002003a001a30ef0009003700d9
:101e7400d080800075004000d08088000a30ef00d8
:101e8400d0808000f90f500002003400900120003f
:101e9400d08088001e4078000004e00005003a006d
:101ea40020c0b3001cf0b700800020008a000700a7
:101eb4007c0037001e407800e24f500006003a00d4
:101ec40040c0b3001cf0b7001e30ef00200020001b
:101ed40081000700730037001e407800e14f500076
:101ee40008003a0060c0b3001cf0b70010002000e6
:101ef400f0808800254ea80010002000760007001e
:101f0400680037001e407800e34f50000b003a0091
:101f1400f08080000000e00003003a0080c0b300bd
:101f24001cf0b70002003700a0c0b3001cf0b700db
:101f340030002000680007005a0037001e40780077
:101f4400e64f500006003a0080c0b3001cf0b70012
:101f54001e30ef00400020005f00070051003700f2
:101f64001e407800e54f500007003a00a0c0b300bf
:101f74001cf0b70010002000f08088005000200002
:101f840055000700470037001e407800e44f50001a
:101f940005003a0080c0b3001cf0b70060002000c8
:101fa4004d0007003f0037001e407800e74f500007
:101fb4000b003a00f08080000000e00003003a00cb
:101fc40080c0b3001cf0b70002003700a0c0b3000b
:101fd4001cf0b700700020003f00070031003700fc
:101fe4001e407800e84f500005003a0080c0b3005e
:101ff4001cf0b700700020003700070029003700ec
:102004001e407800ea4f500005003a0000c1b300ba
:102014001cf0b700700020002f00070021003700db
:102024001e407800eb4f500005003a0020c1b30079
:102034001cf0b700600020002700070019003700db
:102044001e407800ed4f50000b003a00f0808000f5
:102054000000e00003003a0000c1b3001cf0b70028
:102064000200370020c1b3001cf0b700600020005c
:10207400190007000b0037001e407800ec4f500099
:1020840008003a00f08080000000e00003003a00fd
:1020940070c1b3001cf0b7000200370040c1b300a8
:1020a4001cf0b7001cd0bf008080fb0018d0bf001c
:1020b4000080fb000000e900808f50000200320025
:1020c4001cd0bf0018f0b7004f0578004f04be00c5
:1020d4000080fa00000006000200fa00000f7800f9
:1020e4001e007800e40f50001e003200e40f500080
:1020f40007003c00e20f500012003200e20f5000d3
:1021040014003c00e10f50000a003200290037009f
:10211400e60f50001b003200e60f5000150035009a
:10212400e70f50001b003200e80f50001d00320082
:102134002000370064cea90064eea900254ea80053
:102144002000370064cea80064eea900254ea90043
:102154001c00370064cea90064eea800254ea90037
:102164001800370064cea80064eea800254ea9002c
:102174001400370064cea90064eea800254ea80020
:102184001000370064cea80064eea900254ea80014
:102194000c00370064cea80064eea800254ea80009
:1021a4000800370064cea90064eea900254ea900fa
:1021b4000400370064cea90064eea900254ea900ee
:1021c400000000000080fa00000006000400fa008d
:1021d40013e1a90011e1a9001061a8001021a900d0
:1021e40081088000f0fc2f000080600080088800d7
:1021f4000a21ef000621ef00404c200070088800ff
:1022040000402b0060088800800880004400de0045
:10221400634060000081fb008001eb0070088000d7
:102224008000eb00c002dd00040020006008800094
:102234008000eb000400400085804800809ab900cb
:10224400828bb90086027800050242000010b800b3
:1022540001024200840078000001be0000902000ca
:10226400d1032000c5f9070013fa0700008fbe0050
:102274002142800080ff2f00008060000000a00049
:10228400204288000108a9002108a80011e1a80043
:102294000080fa00000006000400fa00881f78009d
:1022a400008fbe0021088000f0fc2f000080600039
:1022b400200888001e0178009e0190000068290013
:1022c40081c124006bf9070018c0b30002f02f008d
:1022d400f3772400baf907000000e00001003c0095
:1022e4000044eb000804e0005400320021088000a0
:1022f400f0fc2f00008060000040a000200888004f
:102304001e0178009e0190000068290081c124000c
:1023140058f90700020020000310240055f90700b3
:1023240018c0b30002f02f00f3772400a4f90700cb
:102334000000e00001003c000044eb000804e00061
:102344003200320021088000f0fc2f000080600081
:102354000050a000200888001e0178009e01900013
:102364000068290081c1240042f90700020020000e
:10237400032824003ff9070018c0b30002f02f001f
:10238400f37724008ef907000000e00001003c0010
:102394000044eb000804e000100032002108800033
:1023a4000003200001007000200888001e0178004e
:1023b4009e0190000068290081c124002df90700c6
:1023c40002002000033824002af907007ef90700e0
:1023d4000000780010088800200037001e017800f3
:1023e4009e0190000068290081c1240021f90700a2
:1023f40002002000032824001ef9070072f90700d8
:102404000000780010088800140037001e017800ce
:102414009e0190000068290081c1240015f907007d
:10242400020020000310240012f9070066f90700d7
:102434000000780010088800080037001e017800aa
:102444009e0190000068290081c1240009f9070059
:102454005df9070000007800100888004f04780038
:102464000080fa00000006000000fa0000002000ce
:102474008124240088ff070005e1a9000421a900a4
:102484000068a9002068a80005e1a8000080fa00ff
:10249400000006000400fa00881f7800008fbe00c8
:1024a400f1088000f0fc2f0000806000f008880034
:1024b4001e0178009e0190000068290081c124005b
:1024c400ecf8070018c0b30002f02f00f3772400e3
:1024d4003bf907000000e00001003c000044eb0071
:1024e4000804e00054003200f1088000f0fc2f00e2
:1024f400008060000040a000f00888001e01780001
:102504009e0190000068290081c12400d9f80700c9
:102514000200200003102400d6f8070018c0b300fe
:1025240002f02f00f377240025f907000000e000f3
:1025340001003c000044eb000804e00032003200db
:10254400f1088000f0fc2f00008060000050a00023
:10255400f00888001e0178009e01900000682900a0
:1025640081c12400c3f807000200200003282400ce
:10257400c0f8070018c0b30002f02f00f37724005e
:102584000ff907000000e00001003c000044eb00ec
:102594000804e00010003200f1088000000320006d
:1025a40001007000f00888001e0178009e01900070
:1025b4000068290081c12400aef807000200200051
:1025c40003382400abf80700fff807000000780088
:1025d400d0088800200037001e0178009e0190007a
:1025e4000068290081c12400a2f80700020020002d
:1025f400032824009ff80700f3f807000000780080
:10260400d0088800140037001e0178009e01900055
:102614000068290081c1240096f807000200200008
:102624000310240093f80700e7f80700000078007f
:10263400d0088800080037001e0178009e01900031
:102644000068290081c124008af80700def8070029
:1026540000007800d00888004f0478000080fa0059
:10266400000006000000fa0000002000a14724003a
:1026740088ff07001fe1a9001e21a9000368a90023
:102684002368a8001fe1a8000080fa0000000600eb
:102694000000fa001160800080ff2f0000806000bd
:1026a4001060880000fa20002060880023aca80095
:1026b400238ca80011618000f03f2f00008060008f
:1026c40000a0a00010618800300020002061880074
:1026d400c3aca800c38ca80011668000f03f2f0093
:1026e4000080600000a0a000106688003000200078
:1026f4002066880001eca8000080fa0000000600b3
:102704000600fa00008fbe00424798004e40900039
:102714000004e00005003a001e0178009e019000cc
:1027240092818800a3818800070037004e40900002
:10273400e14f500004003a001e0178009e01900011
:1027440052818800638188000080fa00000006003e
:102754000000fa00889fbe008a9fbe00b4818000fa
:10276400c581800090818000a181800018c0b300e1
:102774000001be000400be008ff807000000e00066
:10278400010035000044eb000804e0000f003200b3
:1027940098818000a9818000ba818000cb8180006b
:1027a40026d0bf000080fb00cf80de00c2f8070007
:1027b4000001be000a00be00d1f707000801be00f8
:1027c400bc000700b0818800c1818800b48180000a
:1027d400c581800090818000a181800018c0b30071
:1027e4000001be000400be0075f807000000e00010
:1027f40001003c000044eb000804e0000f0032003c
:1028040098818000a9818000ba818000cb818000fa
:1028140026d0bf000080fb00cf80de00a6f80700b2
:102824000001be000a00be00b4f707000801be00a4
:1028340088000700b0818800c1818800b0818000d1
:10284400c181800018c0b3006011b8005cf80700b3
:102854000000e00001003c000044eb000804e0003c
:1028640004003200c3eca90024cea800c3cca80005
:1028740003003700c3cca90024eea800c3eca800d1
:10288400b0818000c18180005c000700020020004c
:1028940003222400e0f807006cf807000000780029
:1028a40030668800748180008581800050818000ba
:1028b4006181800018c0b3000001be000400be00a6
:1028c4003df807000000e000010035000044eb0083
:1028d4000804e0000f003200588180006981800004
:1028e4007a8180008b81800026d0bf000080fb00ad
:1028f400cf80de0070f807000001be000a00be00b1
:102904007ff707000801be006a0007007081880095
:1029140081818800748180008581800050818000dd
:102924006181800018c0b3000001be000400be0035
:1029340023f807000000e00001003c000044eb0025
:102944000804e0000f003200588180006981800093
:102954007a8180008b81800026d0bf000080fb003c
:10296400cf80de0054f807000001be000a00be005c
:1029740062f707000801be00360007007081880076
:1029840081818800708180008181800018c0b3003b
:102994006011b8000af807000000e00001003c00e4
:1029a4000044eb000804e0000400320023cca9003a
:1029b40015eea80023eca8000300370023eca900bf
:1029c40015cea80023cca8007081800081818000ee
:1029d4000a00070002002000032224008ef80700ea
:1029e4001af8070000007800306188004f05be0027
:1029f4004f04be000080fa00000006000400fa0044
:102a0400881f7800008fbe0018c0b3006011b800a2
:102a14001e0078009e009000e9f707000000e00027
:102a240001003d000044eb000804e0000300320014
:102a34001e0078009e009000030037001e007800fe
:102a44009e00900001f0a2004f0478000080fa007c
:102a5400000006000800fa00881f7800008fbe00fe
:102a6400220798003307980018c0b3002e01900085
:102a7400be0190001e0078009e009000d0f7070071
:102a84000000e00001003c000044eb000804e0000a
:102a9400030032001e0078009e0090000200370000
:102aa4002e009000be0090004f0478000080fa00d1
:102ab400000006000800fa00881f7800008fbe009e
:102ac400220798003307980018c0b3002e01900025
:102ad400be0190001e0078009e009000b6f707002b
:102ae4000000e000010035000044eb000804e000b1
:102af400030032001e0078009e00900002003700a0
:102b04002e009000be0090004f0478000080fa0070
:102b1400000006000c00fa00881f7800008fbe0039
:102b24002207980033079800440798005507980037
:102b340018c0b3004e019000de0190001e00780022
:102b44009e0090009ef707000000e00001003c009a
:102b54000044eb000804e000040032004e01900041
:102b6400de019000028fbe000e00370018c0b300d3
:102b74002e019000be0190001e0078009e0090007f
:102b84008df707000000e000010035000044eb0071
:102b94000804e000030032002e019000be01900002
:102ba400028fbe001e0078009e0090004f04780043
:102bb4000080fa00000006000400fa00008fbe0046
:102bc400b2fd2000930424001e0078009e009000b3
:102bd40028f7070002002000433324000ef8070002
:102be4000080fa00000006000400fa00008fbe0016
:102bf400b2fd2000930424001e0078009e00900083
:102c040005f80700020020004333240019f70700e9
:102c14000080fa00000006000000fa0021e3a90089
:102c24002143a80001198000f0cf2f00008060002c
:102c3400001988002043a90001198000000e20001b
:102c4400010070000019880011198000f0ff2100b4
:102c540000806000101988002343a8001119800027
:102c6400f0cf2f0000806000101988001119800037
:102c740030f82f00008060000040a0001019880088
:102c84002203a9002223a90025e3a900f0c0b30070
:102c940024e3b70021198000f00f2e00808060002b
:102ca40000f0200001007000201988003303a900ff
:102cb4002e0ea8002f6ea8006f2ea8001e2ea800ae
:102cc4004feea80030c3a8003163a8002e03a8006b
:102cd4003063a80031e3a8004119800000fc2f00f4
:102ce400008060004019880028e3a90001a8a90019
:102cf40021a8a80021e3a8000080fa000000060033
:102d04000000fa002023a8000080fa00000006005a
:102d14000000fa00e00021000080fa000000060034
:102d24000000fa0016d0bf000080fa000000060080
:102d34000000fa001670ef000080fa0000000600a0
:102d44000000fa00f0032000303a8800213a8000a5
:102d5400f0f32f0000806000203a8800213a8000c0
:102d640000fe2f00008060000000a000203a8800d0
:102d74001200200080072000a109200033742000e5
:102d8400804978008149780082497800103a8000af
:102d9400000178000200a0006004200071052000fa
:102da40023742000804978008149780082497800a2
:102db40000000000113a80000000270080806000bd
:102dc40000002100808f5000faff3a00000000004c
:102dd400113a800000022000008060000000e00042
:0c2de400fbff32000080fa000000060037
:020000040000fa
:102df0001810000008000000800000000010000013
:102e00000c00000082000000e8032300001900000d
:102e1000050019000001000020100000060000005d
:102e20008000000028100000260000008000000044
:102e30002610000002000000820000000a000000ce
:102e40000c1000000c0000008000000000000000da
:020000040000fa
:102e50000000fa000e2eef001e2eef002e2eef00c7
:102e60003e2eef004e2eef005e2eef006e2eef0096
:102e7000214ea90060cea90060eea90011cea900e4
:102e800011eea90020cea90020eea9000080fa00d2
:042e90000000060038
:020000040000fa
:02000004000af0
:04afe000cfff00009f
:020000040000fa
:02000004000af0
:04afe400ffff00006b
:020000040000fa
:02000004000af0
:04afe8007fff0000e7
:020000040000fa
:02000004000af0
:04afec005fff000003
:020000040000fa
:02000004000af0
:04aff00038ff000026
:020000040000fa
:02000004000af0
:04aff400ffff00005b
:00000001FF
