:020000040000fa
:080000000002040000000000f2
:020000040000fa
:04000800a003000051
:020000040000fa
:04000c00a00300004d
:020000040000fa
:04001000a003000049
:020000040000fa
:04001400a003000045
:020000040000fa
:04001800a003000041
:020000040000fa
:04001c00a00300003d
:020000040000fa
:04002000a003000039
:020000040000fa
:04002400a003000035
:020000040000fa
:04002800a003000031
:020000040000fa
:04002c00a00300002d
:020000040000fa
:04003000a003000029
:020000040000fa
:0400340002030000c3
:020000040000fa
:04003800a003000021
:020000040000fa
:04003c00a00300001d
:020000040000fa
:04004000a003000019
:020000040000fa
:04004400a003000015
:020000040000fa
:04004800fa020000b8
:020000040000fa
:04004c00a00300000d
:020000040000fa
:04005000a003000009
:020000040000fa
:040054006e03000037
:020000040000fa
:04005800a003000001
:020000040000fa
:04005c004c03000051
:020000040000fa
:04006000a0030000f9
:020000040000fa
:04006400a0030000f5
:020000040000fa
:04006800a0030000f1
:020000040000fa
:04006c00a0030000ed
:020000040000fa
:04007000a0030000e9
:020000040000fa
:04007400a0030000e5
:020000040000fa
:04007800a0030000e1
:020000040000fa
:04007c00a0030000dd
:020000040000fa
:04008000a0030000d9
:020000040000fa
:04008400a0030000d5
:020000040000fa
:04008800a0030000d1
:020000040000fa
:04008c00a0030000cd
:020000040000fa
:04009000a0030000c9
:020000040000fa
:040094002203000043
:020000040000fa
:04009800a0030000c1
:020000040000fa
:04009c00a0030000bd
:020000040000fa
:0400a000a0030000b9
:020000040000fa
:0400a400a0030000b5
:020000040000fa
:0400a800a0030000b1
:020000040000fa
:0400ac00a0030000ad
:020000040000fa
:0400b000a0030000a9
:020000040000fa
:0400b400a0030000a5
:020000040000fa
:0400b800a0030000a1
:020000040000fa
:0400bc00a00300009d
:020000040000fa
:0400c000a003000099
:020000040000fa
:0400c400a003000095
:020000040000fa
:0400c800a003000091
:020000040000fa
:0400cc00a00300008d
:020000040000fa
:0400d000a003000089
:020000040000fa
:0400d400a003000085
:020000040000fa
:0400d800a003000081
:020000040000fa
:0400dc00a00300007d
:020000040000fa
:0400e000a003000079
:020000040000fa
:0400e400a003000075
:020000040000fa
:0400e800a003000071
:020000040000fa
:0400ec00a00300006d
:020000040000fa
:0400f000a003000069
:020000040000fa
:0400f400a003000065
:020000040000fa
:0400f800a003000061
:020000040000fa
:0400fc00a00300005d
:020000040000fa
:04010000a003000058
:020000040000fa
:04010400a003000054
:020000040000fa
:04010800a003000050
:020000040000fa
:04010c00a00300004c
:020000040000fa
:04011000a003000048
:020000040000fa
:04011400a003000044
:020000040000fa
:04011800a003000040
:020000040000fa
:04011c00a00300003c
:020000040000fa
:04012000a003000038
:020000040000fa
:04012400a003000034
:020000040000fa
:04012800a003000030
:020000040000fa
:04012c00a00300002c
:020000040000fa
:04013000a003000028
:020000040000fa
:04013400a003000024
:020000040000fa
:04013800a003000020
:020000040000fa
:04013c00a00300001c
:020000040000fa
:04014000a003000018
:020000040000fa
:04014400a003000014
:020000040000fa
:04014800a003000010
:020000040000fa
:04014c00a00300000c
:020000040000fa
:04015000a003000008
:020000040000fa
:04015400a003000004
:020000040000fa
:04015800a003000000
:020000040000fa
:04015c00a0030000fc
:020000040000fa
:04016000a0030000f8
:020000040000fa
:04016400a0030000f4
:020000040000fa
:04016800a0030000f0
:020000040000fa
:04016c00a0030000ec
:020000040000fa
:04017000a0030000e8
:020000040000fa
:04017400a0030000e4
:020000040000fa
:04017800a0030000e0
:020000040000fa
:04017c00a0030000dc
:020000040000fa
:04018000a0030000d8
:020000040000fa
:04018400a0030000d4
:020000040000fa
:04018800a0030000d0
:020000040000fa
:04018c00a0030000cc
:020000040000fa
:04019000a0030000c8
:020000040000fa
:04019400a0030000c4
:020000040000fa
:04019800a0030000c0
:020000040000fa
:04019c00a0030000bc
:020000040000fa
:0401a000a0030000b8
:020000040000fa
:0401a400a0030000b4
:020000040000fa
:0401a800a0030000b0
:020000040000fa
:0401ac00a0030000ac
:020000040000fa
:0401b000a0030000a8
:020000040000fa
:0401b400a0030000a4
:020000040000fa
:0401b800a0030000a0
:020000040000fa
:0401bc00a00300009c
:020000040000fa
:0401c000a003000098
:020000040000fa
:0401c400a003000094
:020000040000fa
:0401c800a003000090
:020000040000fa
:0401cc00a00300008c
:020000040000fa
:0401d000a003000088
:020000040000fa
:0401d400a003000084
:020000040000fa
:0401d800a003000080
:020000040000fa
:0401dc00a00300007c
:020000040000fa
:0401e000a003000078
:020000040000fa
:0401e400a003000074
:020000040000fa
:0401e800a003000070
:020000040000fa
:0401ec00a00300006c
:020000040000fa
:0401f000a003000068
:020000040000fa
:0401f400a003000064
:020000040000fa
:0401f800a003000060
:020000040000fa
:0401fc00a00300005c
:020000040000fa
:04020000a003000057
:020000040000fa
:04020400a003000053
:020000040000fa
:04020800a00300004f
:020000040000fa
:04020c00a00300004b
:020000040000fa
:04021000a003000047
:020000040000fa
:04021400a003000043
:020000040000fa
:04021800a00300003f
:020000040000fa
:04021c00a00300003b
:020000040000fa
:04022000a003000037
:020000040000fa
:04022400a003000033
:020000040000fa
:04022800a00300002f
:020000040000fa
:04022c00a00300002b
:020000040000fa
:04023000a003000027
:020000040000fa
:04023400a003000023
:020000040000fa
:04023800a00300001f
:020000040000fa
:04023c00a00300001b
:020000040000fa
:04024000a003000017
:020000040000fa
:04024400a003000013
:020000040000fa
:04024800a00300000f
:020000040000fa
:04024c00a00300000b
:020000040000fa
:04025000a003000007
:020000040000fa
:04025400a003000003
:020000040000fa
:04025800a0030000ff
:020000040000fa
:04025c00a0030000fb
:020000040000fa
:04026000a0030000f7
:020000040000fa
:04026400a0030000f3
:020000040000fa
:04026800a0030000ef
:020000040000fa
:04026c00a0030000eb
:020000040000fa
:04027000a0030000e7
:020000040000fa
:04027400a0030000e3
:020000040000fa
:04027800a0030000df
:020000040000fa
:04027c00a0030000db
:020000040000fa
:04028000a0030000d7
:020000040000fa
:10040000ef0421000eff2c000e0188000000000008
:10041000000020000000e000020032000001200087
:100420002002880014000700c70007000000e00059
:1004300003003a00607b2100010020000200370029
:100440000000200001002000810f70000100320038
:100450000f000700000020000000e0000200320052
:100460000000020000000000700702000000000011
:100470000040da000000fe00200020000000e00044
:1004800002003200100020009001880000000600e9
:10049000a1028800800478000000eb001f003700f4
:1004a000e284440054a0b4009905ba00e2844400f8
:1004b00054a0b4009906ba00e284440054a0b400e9
:1004c0000006eb00476fde00fd07b200ae018800ba
:1004d000636ce10003003a000ad801000000eb0061
:1004e0000e003700606ce10008003a00004deb00a0
:1004f0000a05e800020039003420ec000af0a000f0
:100500008b05e900f9ff3e00040037006168e10057
:10051000010032000086eb000b00070019c7ba008b
:100520000e04e0001905ba0003003a000a00e000da
:10053000dbff3a0000000600fe07b200ae028800b2
:100540008a047800f5ff37000cd0a300e20f4d00bd
:100550001c00390089027800354dba000a05e80010
:10056000020039003420ec000af0a0008b05e900fd
:100570000f003200254dba000a05e80002003900dc
:100580003420ec000af0a0008b05e90008003200de
:100590000c00e0000600320015cdba000a05e800a4
:1005a000020039003420ec000af0a0008b05e900bd
:1005b0008984e80054a0b4000b00e000e2ff3a0098
:1005c000000006009902ba00055d78008b05e9007d
:1005d000f7ff3200c82ade00055d78008b05e900d0
:1005e000f3ff32000c00e000f1ff320019ddba0029
:1005f000eeff37000000fa000108a9000080fa00b1
:10060000004006003600f800809fbe00829fbe00ba
:10061000849fbe00869fbe000000fa000068a9000b
:1006200060080700c70907000080fa004f03be00fa
:100630004f02be004f01be004f00be003600f90061
:10064000004006003600f800809fbe00829fbe007a
:10065000849fbe00869fbe000000fa000368a900c8
:10066000008180001181800061004000e08048002e
:100670000081880011818800ae0207000080fa0026
:100680004f03be004f02be004f01be004f00be0030
:100690003600f90000400600809fbe000000fa000e
:1006a00001a8a90001188000e000210001087800dd
:1006b00011188000e000210011009800211880002e
:1006c000e00021002100980010c0b30016f0b70030
:1006d0000080fa004f00be0000400600801f780036
:1006e0000000fa000168a900101180006400600099
:1006f0000000e000010032002242a9001011800039
:10070000620060000000e000050032002222a90023
:1007100004003700301180002011880001003700ec
:100720000000000010118000610060000000e00087
:10073000f8ff3a000080fa004f0078000040060001
:100740000040da000000fe000000050003f0a200f7
:10075000889fbe008a9fbe008c1f78002a01070078
:10076000310133006450e1004f0032006420e100a9
:100770005200320003826c0007003b000905d000e4
:100780000306d000820f54000c065d000200390001
:100790000200320089017800030678008582550046
:1007a00004003d000003fd008103fd008502ea0016
:1007b0008b854200840f720002003b006000100035
:1007c000e08018006011b8000005eb007a28e10015
:1007d0000a00390006007800c75ddd00f707b200a7
:1007e000878075002d003700828171000a01780032
:1007f000610560008180d1000080d3008502e9009e
:10080000f9ff3b00060440008784480002003b00db
:1008100060041400e0841c000988a3000700320073
:100820008a81710082817100610164008904d100b4
:100830000884d3008b05e800170037000978a3006f
:1008400013003a000b00e000130034008b05e900b0
:100850000804440089844c000a4474000978a30009
:100860000d003a000b00e000070034008b05e900a2
:100870000804440089844c0001003a000b00200069
:100880000978a300f7ff32000001eb0002003700f7
:10089000828171000a017800a00007000cf0a70017
:1008a00001f0a000e90037006420e10002003a00f6
:1008b000838f6c00e90033000801be000200be0017
:1008c000e2003700889fbe008a9fbe008c1f780020
:1008d000cd000700d400330003866c006450e100b3
:1008e0002e0032006420e100330032006150e1004c
:1008f0002f0032006120e100310032008585550073
:10090000eb07b000090020000804200005003700b4
:100910000804440089844c000a00310006034300a7
:1009200087834b000001530081815b00f8ff330097
:100930000203be000800a0000804440089844c00a3
:10094000f6ff3900c639dd00830173000100320073
:10095000130020008904d1000884d3000998a30063
:10096000050032000800a7000300a0008904d100a0
:100970000884d3008b05e8008904d1000884d300e3
:100980000001eb000281d2006400070001f0a10029
:100990000cf0a70001f0a000ac0037006420e100db
:1009a000ae0032000801be000200be00f7ff3700b3
:1009b0006120e100a90032006000b800f3ff3700b9
:1009c0000000200001f82700f0ff3700839f680037
:1009d0000100e00002003d0060001000e08018000f
:1009e0000300e00002003d0060011100e0811900f9
:1009f000d10007004f00e00002003b006000100043
:100a0000e08018000000060014002000da00370023
:100a1000f4ff2f00d80037000001be00650007007a
:100a20000470a70003f0a1006509b10016003200b0
:100a30000d0035006828e10006003500f0ff2f00aa
:100a4000f1ff27000300e00013003b000100280035
:100a50000000050000004000818048008502e90098
:100a6000fcff3a0008003700f88f420002003c000b
:100a70008000eb00000005008100d1000080d30061
:100a80008502e800fcff3a000300e00002003b00a2
:100a900060001000e0801800000006000001be00a9
:100aa000440007000470a70003f0a10003f8a300ae
:100ab00013003a006509b10010003200090035004a
:100ac0006928e1000200350001002800000005004f
:100ad00000004000818048008502e900fcff3a00e8
:100ae00000000600f88f4200050035008100d100ab
:100af0000080d3008502e800fcff3a0000000600f9
:100b00008000eb00000005004f89de0082017800c4
:100b1000b40037006011b800c20037008100200027
:100b2000618055000b003d000b00200061fe2f008e
:100b30000100e1001d003400828171006101640048
:100b40008904d1000884d3000000e800faff3a00cd
:100b5000710020006100640003007000020060006a
:100b60000900320061044400e0844c000988a500bb
:100b7000050032008b05e8006808e10002003a0039
:100b80008904d1000884d300f20f20000258e1004c
:100b900005003d00c75ddd00f907b20089807500e2
:100ba00008007800000006000bf827008b00780092
:100bb00000000500c70ade00f107b200f50fb20021
:100bc00008003200e1cf4200020032000170a000b4
:100bd00024000500810f70000100320004080500a8
:100be00044000500810f700002003a001400050067
:100bf0008502e9000000400081c04800fcff3b0086
:100c00000170a000240005000004be00e9ff0700f9
:100c10000003be000405be000200be00e5ff0700a1
:100c2000844f7500000006000200be006450e10021
:100c3000050036006420e100020036000968a300c8
:100c400001003a000800be000160a0004f067800d5
:100c50004f05be004f04be0000000600f0ff2f004d
:100c6000f1ff2700f9ff3700889fbe008a9fbe0072
:100c70008c1f7800e4ff0700ebff330003866c0055
:100c80006450e100240032006420e10027003200bb
:100c90006150e100220032006120e10021003200b9
:100ca0008b854200eb07b1000134b800003ab80070
:100cb0000804420089844a00013ab8000030b800b4
:100cc0008880400009014a00040033000000400011
:100cd00081804800020149008b05e900c909dd0057
:100ce000830170000100320013002000c814de00f0
:100cf0004814dd004709de001200b200c808de001b
:100d00000884700085ff070001f0a1000cf0a70027
:100d100001f0a000cdff37006120e100cfff3200dd
:100d20000801be000200be00f7ff37006150e1007d
:100d3000fcff3a00c9ff37006022b800060220001d
:100d40000000d0008180d2000482d2008582d200cf
:100d50000000a0000202520083825a00030031000a
:100d60000202420083824a000000a1000603e9005b
:100d7000f3ff3a0000000600889fbe008a9fbe0075
:100d8000841f7800a0ff07004f0078001100330097
:100d9000f0ff2f00838f6c0006003b000405650008
:100da0000a00a7000800370009f0a6001000200084
:100db00008003700820f5400838f5c000300390065
:100dc0001000200001003e000000200009f0a700f4
:100dd0000000ea004f05be004f04be000000e00026
:100de00000000600881f7800030478000300e0007c
:100df00007003d0060001000e0801800600119004d
:100e0000e081190002003b0001f02d0003003700d3
:100e10000400070008f0a70001f0a0004f047800cc
:100e200000000600889fbe008a9fbe0000827000fe
:100e30000402710004827100260032000004be002a
:100e40000200be006011b8006b092000950220006e
:100e50000182cf000a0039000541b1000082cf00b5
:100e6000070039000541b1000982cf0004003900b4
:100e70000541b1000882cf00010039000541b100f1
:100e800005425200120032000a003b0082817100cc
:100e9000610164008100d1000080d3008984d30007
:100ea0000884d3008b05e8000442e800f7ff3a000d
:100eb000070037000804440089844c000000480003
:100ec000818048008b05e9000442e900f9ff3a00ff
:100ed00012ff07004f05be004f04be0000000600d1
:020000040000fa
:100ee0000800fa00db07070005080700cc0407002c
:100ef00072050700fb0507005c070700ee05070009
:100f0000a00707000100370000000000910707005c
:100f1000000f780093070700e14f5000faff3a00f6
:100f2000940707008b070700100798001e00900029
:100f300068004000100078008000eb00f5fe07001c
:100f4000323323003305240047ff0700020020004e
:100f5000035824005bfe0700d2cc2c00c3042400fd
:100f600041ff070020079800310798002e019000ec
:100f7000be019000000020008120240051fe0700e7
:100f800002002000030a2400f0fd0700d081880041
:100f9000e18188001e00900066004000100078008b
:100fa0008000eb00dbfe0700323323003305240012
:100fb0002dff0700020020000358240041fe070017
:100fc000d2cc2c00c304240027ff07002007980080
:100fd000310798002e019000be0190000000200013
:100fe0008120240037fe070002002000030a2400ad
:100ff000d6fd070030828800418288001e009000e4
:1010000064004000100078008000eb00c1fe070083
:10101000323323003305240013ff070002002000b1
:101020000358240027fe0700d2cc2c00c304240060
:101030000dff070020079800310798002e0190004f
:10104000be01900000002000812024001dfe07004a
:1010500002002000030a2400bcfd0700f081880084
:10106000018288001e0090000080e80010007800d7
:101070008000eb00a7fe0700323323003305240075
:10108000f9fe070002002000035824000dfe0700af
:10109000d2cc2c00c3042400f3fe070020079800e4
:1010a000310798002e019000be0190000000200042
:1010b0008120240003fe070002002000030a240010
:1010c000a2fd070010828800218288001e00900087
:1010d000100078008000eb008efe07003233230002
:1010e00033052400e0fe070002002000035824001e
:1010f000f4fd0700d2cc2c00c3042400dafe070064
:1011000020079800310798002e019000be01900042
:101110000000200081202400eafd070002002000da
:10112000030a240089fd070050828800618288003c
:1011300076ff37000000fa0018d0bf000080fb00e7
:10114000cf80de007201200003002000820f5000db
:10115000838f5800b4003e000006010017003700de
:1011600020003700290037003500370036003700ef
:101170003f00370040003700490037004a00370081
:1011800054003700550037005f003700a6003700d5
:10119000a5003700a4003700a30037005c0037002b
:1011a00066003700670037007100370072003700b3
:1011b0007e00370093003700850037002030ef00b5
:1011c0002230ef000041eb006000b800610507002d
:1011d00012c0b3006000b8005e05070010c0b30085
:1011e00018f0b7000281800013818000803e20004b
:1011f00001002000800f5100818f59008d003600c2
:1012000020c0b30018f0b7008f003700d0808000f6
:10121000cf80de003cfe07000041eb004d050700db
:10122000d0808000cf80de0037fe070012c0b30000
:101230004805070030c0b30018f0b700820037003f
:1012400083000700800037000041eb006000b80019
:101250004005070012c0b300000020000115240063
:101260003c05070050c0b30018f0b7007600370007
:1012700077000700740037000041eb0000002000f9
:10128000011524003305070012c0b3006000b80048
:101290003005070070c0b30018f0b7006a003700cf
:1012a0006b000700680037000041eb0000002000e1
:1012b00001152c002705070012c0b3000000200014
:1012c000011524002305070090c0b30018f0b700f3
:1012d0005d0037005e0007005b0037000041eb0057
:1012e00000002000011524001a05070012c0b300f9
:1012f0000000200001152c0016050700b0c0b30047
:1013000018f0b70050003700510007004e003700ba
:101310000041eb0000002000010a2c000d05070031
:1013200012c0b300000020000115240009050700c9
:1013300010c1b30018f0b7004300370044000700a5
:10134000410037000041eb0000002000011524009f
:101350000005070012c0b30000002000010a2c00a5
:10136000fc04070030c1b30018f0b70036003700a6
:1013700037000700340037002030ef002230ef0044
:101380000041eb0000002000011a2400f1040700d6
:1013900012c0b30000002000011a2c00ed04070069
:1013a00050c1b30018f0b70027003700008080005c
:1013b0006101b9000081800011818000800f51001f
:1013c000818f59001d003100210007001e003700e9
:1013d0002030ef002230ef000041eb000000200041
:1013e000011a2400db04070012c0b3000000200033
:1013f000011a2c00d704070060c1b30018f0b70031
:1014000011003700008080006101b9000081800078
:1014100011818000800f5100818f59000900310037
:101420000b000700080037001870ef0000000000f4
:101430000500370000000000030037000000000036
:1014400001003700000000000080fa0000000600e4
:101450000200fa00889fbe008a1f78000040eb005f
:10146000004f7800588280006982800040808000b0
:10147000cf80de00a4fd07001ac0b3000001be004b
:101480000800be0060fd07000000e000010035001c
:101490000045eb000a04e00003003200b0c0b300d6
:1014a000004f780082023700388280004982800035
:1014b00040808000cf80de0093fd07001ac0b3009b
:1014c0000001be000800be004ffd07000000e00064
:1014d000010035000045eb000a04e0000300320083
:1014e000a0c0b300004f780071023700588280001e
:1014f0006982800030808000cf80de0082fd07009e
:101500001ac0b3000001be000800be003efd070087
:101510000000e000010035000045eb000a04e00097
:101520003b003200d8818000e9818000108080007b
:10153000cf80de0074fd07001ac0b3000001be00ba
:101540000800be0032fd07000000e00001003c0082
:101550000045eb000a04e0002d003200f881800015
:101560000982800020808000cf80de0066fd0700b9
:101570001ac0b3000001be000800be0024fd070031
:101580000000e00001003c000045eb000a04e00020
:101590001f003200188280002982800010808000a5
:1015a000cf80de0058fd07001ac0b3000001be0066
:1015b0000800be0016fd07000000e00001003c002e
:1015c0000045eb000a04e000110032003882800080
:1015d0004982800030808000cf80de004afd070015
:1015e0001ac0b3000001be000800be0008fd0700dd
:1015f0000000e00001003c000045eb000a04e000b0
:1016000003003200b0c0b300004f7800280237005a
:10161000588280006982800030808000cf80de00a8
:1016200039fd07001ac0b3000001be000800be006b
:10163000f7fc07000000e00001003c000045eb0063
:101640000a04e0003b003200d8818000e98180007c
:1016500010808000cf80de002bfd07001ac0b30091
:101660000001be000800be00e9fc07000000e00029
:1016700001003c000045eb000a04e0002d003200b0
:10168000f88180000982800020808000cf80de0009
:101690001dfd07001ac0b3000001be000800be0017
:1016a000dbfc07000000e00001003c000045eb000f
:1016b0000a04e0001f0032001882800029828000a6
:1016c00010808000cf80de000ffd07001ac0b3003d
:1016d0000001be000800be00cdfc07000000e000d5
:1016e00001003c000045eb000a04e000110032005c
:1016f000388280004982800030808000cf80de0008
:1017000001fd07001ac0b3000001be000800be00c2
:10171000bdfc07000000e000010035000045eb00c3
:101720000a04e00003003200a0c0b300004f7800bc
:10173000df013700388280004982800030808000dd
:10174000cf80de00f0fc07001ac0b3000001be002d
:101750000800be00acfc07000000e00001003500fe
:101760000045eb000a04e0003b0032005882800094
:101770006982800030808000cf80de00e2fc0700bc
:101780001ac0b3000001be000800be00a0fc0700a4
:101790000000e00001003c000045eb000a04e0000e
:1017a0002d003200d8818000e98180001080800007
:1017b000cf80de00d4fc07001ac0b3000001be00d9
:1017c0000800be0092fc07000000e00001003c00a1
:1017d0000045eb000a04e0001f003200f8818000a1
:1017e0000982800020808000cf80de00c6fc0700d8
:1017f0001ac0b3000001be000800be0084fc070050
:101800000000e00001003c000045eb000a04e0009d
:101810001100320018828000298280001080800030
:10182000cf80de00b8fc07001ac0b3000001be0084
:101830000800be0076fc07000000e00001003c004c
:101840000045eb000a04e00003003200a0c0b30032
:10185000004f78009601370038828000498280006e
:1018600030808000cf80de00a7fc07001ac0b300e4
:101870000001be000800be0065fc07000000e0009b
:1018800001003c000045eb000a04e0003b00320090
:10189000588280006982800030808000cf80de0026
:1018a00099fc07001ac0b3000001be000800be008a
:1018b00055fc07000000e000010035000045eb008a
:1018c0000a04e0002d003200d8818000e981800008
:1018d00010808000cf80de008bfc07001ac0b300b0
:1018e0000001be000800be0049fc07000000e00047
:1018f00001003c000045eb000a04e0001f0032003c
:10190000f88180000982800020808000cf80de0086
:101910007dfc07001ac0b3000001be000800be0035
:101920003bfc07000000e00001003c000045eb002c
:101930000a04e00011003200188280002982800031
:1019400010808000cf80de006ffc07001ac0b3005b
:101950000001be000800be002dfc07000000e000f2
:1019600001003c000045eb000a04e00003003200e7
:10197000b0c0b300004f78004d013700d88180001f
:10198000e981800010808000cf80de005efc0700cf
:101990001ac0b3000001be000800be001afc070018
:1019a0000000e000010035000045eb000a04e00003
:1019b0001f003200f88180000982800020808000b2
:1019c000cf80de0050fc07001ac0b3000001be004b
:1019d0000800be000cfc07000000e000010035001c
:1019e0000045eb000a04e00011003200188280007c
:1019f0002982800010808000cf80de0042fc07003a
:101a00001ac0b3000001be000800be00fefb0700c4
:101a10000000e000010035000045eb000a04e00092
:101a20000300320070c0b300004f7800200137007f
:101a3000d8818000e981800010808000cf80de00a6
:101a400031fc07001ac0b3000001be000800be0050
:101a5000edfb07000000e000010035000045eb0051
:101a60000a04e0001f003200f88180000982800033
:101a700020808000cf80de0023fc07001ac0b30066
:101a80000001be000800be00e1fb07000000e0000e
:101a900001003c000045eb000a04e00011003200a8
:101aa000188280002982800010808000cf80de00b4
:101ab00015fc07001ac0b3000001be000800be00fc
:101ac000d1fb07000000e000010035000045eb00fd
:101ad0000a04e0000300320040c0b300004f780069
:101ae000f3003700d8818000e981800010808000f9
:101af000cf80de0004fc07001ac0b3000001be0066
:101b00000800be00c0fb07000000e0000100350037
:101b10000045eb000a04e0001f003200f88180005d
:101b20000982800020808000cf80de00f6fb070065
:101b30001ac0b3000001be000800be00b2fb0700df
:101b40000000e000010035000045eb000a04e00061
:101b500011003200188280002982800010808000ed
:101b6000cf80de00e8fb07001ac0b3000001be0012
:101b70000800be00a6fb07000000e00001003c00da
:101b80000045eb000a04e0000300320060c0b3002f
:101b9000004f7800c6003700d8818000e9818000be
:101ba00010808000cf80de00d7fb07001ac0b30092
:101bb0000001be000800be0095fb07000000e00029
:101bc00001003c000045eb000a04e0001f00320069
:101bd000f88180000982800020808000cf80de00b4
:101be000c9fb07001ac0b3000001be000800be0018
:101bf00085fb07000000e000010035000045eb0018
:101c00000a04e0001100320018828000298280005e
:101c100010808000cf80de00bbfb07001ac0b3003d
:101c20000001be000800be0077fb07000000e000d6
:101c3000010035000045eb000a04e000030032001b
:101c400050c0b300004f780099003700d881800061
:101c5000e981800010808000cf80de00aafb0700b1
:101c60001ac0b3000001be000800be0066fb0700fa
:101c70000000e000010035000045eb000a04e00030
:101c80001f003200f88180000982800020808000df
:101c9000cf80de009cfb07001ac0b3000001be002d
:101ca0000800be005afb07000000e00001003c00f5
:101cb0000045eb000a04e0001100320018828000a9
:101cc0002982800010808000cf80de008efb07001c
:101cd0001ac0b3000001be000800be004cfb0700a4
:101ce0000000e00001003c000045eb000a04e000b9
:101cf0000300320020c0b300004f78006c003700b2
:101d0000d8818000e981800010808000cf80de00d3
:101d10007dfb07001ac0b3000001be000800be0032
:101d20003bfb07000000e00001003c000045eb0029
:101d30000a04e0001f003200f88180000982800060
:101d400020808000cf80de006ffb07001ac0b30048
:101d50000001be000800be002dfb07000000e000ef
:101d600001003c000045eb000a04e00011003200d5
:101d7000188280002982800010808000cf80de00e1
:101d800061fb07001ac0b3000001be000800be00de
:101d90001dfb07000000e000010035000045eb00de
:101da0000a04e0000300320010c0b300004f7800c6
:101db0003f003700f8818000098280002080800089
:101dc000cf80de0050fb07001ac0b3000001be0048
:101dd0000800be000cfb07000000e0000100350019
:101de0000045eb000a04e0000300320030c0b300fd
:101df000004f78002e003700d8818000e9818000f4
:101e000010808000cf80de003ffb07001ac0b300c7
:101e10000001be000800be00fdfa07000000e0005f
:101e200001003c000045eb000a04e0002000320005
:101e3000f88180000982800020808000cf80de0051
:101e400031fb07001ac0b3000001be000800be004d
:101e5000effa07000000e00001003c000045eb0045
:101e60000a04e000120032001882800029828000fb
:101e700010808000cf80de0023fb07001ac0b30073
:101e80000001be000800be00e1fa07000000e0000b
:101e900001003c000045eb000a04e00004003200b1
:101ea0000040eb00004f78001000200050808800b8
:101eb000508080000000e00002003a001a30ef007d
:101ec00009003700d08080000080e800d0808800c2
:101ed0000a30ef00d0808000f90f5000020034007b
:101ee00020002000d08088001e4078000004e00020
:101ef00005003a0020c0b3001cf0b70080002000ad
:101f00008a0007007c0037001e407800e24f500036
:101f100006003a0040c0b3001cf0b7001e30ef00ce
:101f20002000200081000700730037001e40780069
:101f3000e14f500008003a0060c0b3001cf0b70049
:101f400010002000f0808800254ea800100020001e
:101f500076000700680037001e407800e34f50000d
:101f60000b003a00f08080000000e00003003a001f
:101f700080c0b3001cf0b70002003700a0c0b3005f
:101f80001cf0b70030002000680007005a0037003e
:101f90001e407800e64f500006003a0080c0b300b3
:101fa0001cf0b7001e30ef00400020005f0007006b
:101fb000510037001e407800e54f500007003a00fe
:101fc000a0c0b3001cf0b70010002000f080880013
:101fd0005000200055000700470037001e407800e1
:101fe000e44f500005003a0080c0b3001cf0b70079
:101ff000600020004d0007003f0037001e407800c1
:10200000e74f50000b003a00f08080000000e00035
:1020100003003a0080c0b3001cf0b7000200370094
:10202000a0c0b3001cf0b700700020003f00070004
:10203000310037001e407800e84f500005003a009c
:1020400080c0b3001cf0b70070002000370007000c
:10205000290037001e407800ea4f500005003a0082
:1020600000c1b3001cf0b700700020002f00070073
:10207000210037001e407800eb4f500005003a0069
:1020800020c1b3001cf0b70060002000270007004b
:10209000190037001e407800ed4f50000b003a0049
:1020a000f08080000000e00003003a0000c1b300af
:1020b0001cf0b7000200370020c1b3001cf0b700cd
:1020c00060002000190007000b0037001e40780058
:1020d000ec4f500008003a00f08080000000e00063
:1020e00003003a0070c1b3001cf0b70002003700d3
:1020f00040c1b3001cf0b7001cd0bf008080fb00c3
:1021000018d0bf000080fb000000e900808f500065
:10211000020032001cd0bf0018f0b7004f05780055
:102120004f04be000080fa00000006000200fa0022
:10213000000f78001e007800e40f50001e003200ef
:10214000e40f500007003c00e20f50001200320084
:10215000e20f500014003c00e10f50000a00320072
:1021600029003700e60f50001b003200e60f500038
:1021700015003500e70f50001b003200e80f50003b
:102180001d0032002000370064cea90064eea900d3
:10219000254ea8002000370064cea80064eea900f8
:1021a000254ea9001c00370064cea90064eea800eb
:1021b000254ea9001800370064cea80064eea800e0
:1021c000254ea9001400370064cea90064eea800d3
:1021d000254ea8001000370064cea80064eea900c8
:1021e000254ea8000c00370064cea80064eea800bd
:1021f000254ea8000800370064cea90064eea900af
:10220000254ea9000400370064cea90064eea900a1
:10221000254ea900000000000080fa000000060022
:102220000400fa0013e1a90011e1a9001061a8005f
:102230001021a90081088000f0fc2f0000806000c0
:10224000800888000a21ef000621ef00404c2000a2
:102250007008880000402b0060088800800880001b
:102260004400de00634060000081fb008001eb0061
:10227000700880008000eb00c002dd000400200038
:10228000600880008000eb0004004000858048006a
:10229000809ab900828bb90086027800050242005c
:1022a0000010b80001024200840078000001be0066
:1022b00000902000d1032000c4f9070012fa0700a3
:1022c000008fbe002142800080ff2f000080600050
:1022d0000000a000204288000108a9002108a800f1
:1022e00011e1a8000080fa00000006000400fa00d6
:1022f000881f7800008fbe0021088000f0fc2f00ae
:1023000000806000200888001e0178009e01900077
:102310000068290081c124006af9070018c0b300d1
:1023200002f02f00f3772400b9f907000000e00065
:1023300001003c000044eb000804e00054003200bf
:1023400021088000f0fc2f00008060000040a00009
:10235000200888001e0178009e0190000068290076
:1023600081c1240057f90700020020000310240057
:1023700054f9070018c0b30002f02f00f3772400cf
:10238000a3f907000000e00001003c000044eb005e
:102390000804e0003200320021088000f0fc2f0029
:1023a000008060000050a000200888001e01780016
:1023b0009e0190000068290081c1240041f90700b6
:1023c00002002000032824003ef9070018c0b300d3
:1023d00002f02f00f37724008df907000000e000e1
:1023e00001003c000044eb000804e0001000320053
:1023f00021088000000320000100700020088800f0
:102400001e0178009e0190000068290081c124000f
:102410002cf90700020020000338240029f90700e6
:102420007df90700000078001008880020003700c0
:102430001e0178009e0190000068290081c12400df
:1024400020f9070002002000032824001df90700de
:1024500071f90700000078001008880014003700a8
:102460001e0178009e0190000068290081c12400af
:1024700014f90700020020000310240011f90700de
:1024800065f9070000007800100888000800370090
:102490001e0178009e0190000068290081c124007f
:1024a00008f907005cf907000000780010088800b0
:1024b0004f0478000080fa00000006000000fa00d7
:1024c000000020008124240088ff070005e1a90006
:1024d0000421a9000068a9002068a80005e1a8005f
:1024e0000080fa00000006000400fa00881f78004f
:1024f000008fbe00f1088000f0fc2f00008060001b
:10250000f00888001e0178009e01900000682900f4
:1025100081c12400ebf8070018c0b30002f02f00bf
:10252000f37724003af907000000e00001003c00c6
:102530000044eb000804e00054003200f108800081
:10254000f0fc2f00008060000040a000f008880030
:102550001e0178009e0190000068290081c12400be
:10256000d8f807000200200003102400d5f8070067
:1025700018c0b30002f02f00f377240024f90700fd
:102580000000e00001003c000044eb000804e00013
:1025900032003200f1088000f0fc2f000080600063
:1025a0000050a000f00888001e0178009e019000f5
:1025b0000068290081c12400c2f807000200200041
:1025c00003282400bff8070018c0b30002f02f0052
:1025d000f37724000ef907000000e00001003c0042
:1025e0000044eb000804e00010003200f108800015
:1025f0000003200001007000f00888001e01780030
:102600009e0190000068290081c12400adf80700f8
:102610000200200003382400aaf80700fef8070093
:1026200000007800d0088800200037001e017800e4
:102630009e0190000068290081c12400a1f80700d4
:1026400002002000032824009ef80700f2f807008b
:1026500000007800d0088800140037001e017800c0
:102660009e0190000068290081c1240095f80700b0
:10267000020020000310240092f80700e6f807008b
:1026800000007800d0088800080037001e0178009c
:102690009e0190000068290081c1240089f807008c
:1026a000ddf8070000007800d00888004f047800ab
:1026b0000080fa00000006000000fa000000200080
:1026c000a147240088ff07001fe1a9001e21a900df
:1026d0000368a9002368a8001fe1a8000080fa0091
:1026e000000006000000fa001160800080ff2f004b
:1026f000008060001060880000fa200020608800e0
:1027000023aca800238ca80011618000f03f2f00ab
:102710000080600000a0a000106188003000200050
:1027200020618800c3aca800c38ca800116680009b
:10273000f03f2f000080600000a0a000106688001d
:10274000300020002066880001eca8000080fa001c
:10275000000006000600fa00008fbe004247980005
:102760004e4090000004e00005003a001e01780091
:102770009e01900092818800a381880007003700a5
:102780004e409000e14f500004003a001e017800d6
:102790009e01900052818800638188000080fa00c9
:1027a000000006000000fa00889fbe008a9fbe005d
:1027b000b4818000c581800090818000a18180006b
:1027c00018c0b3000001be000400be008ef8070070
:1027d0000000e000010035000044eb000804e000c8
:1027e0000f00320098818000a9818000ba818000aa
:1027f000cb81800026d0bf000080fb00cf80de00b0
:10280000c1f807000001be000a00be00d0f70700b3
:102810000801be00bc000700b0818800c1818800ab
:10282000b4818000c581800090818000a1818000fa
:1028300018c0b3000001be000400be0074f8070019
:102840000000e00001003c000044eb000804e00050
:102850000f00320098818000a9818000ba81800039
:10286000cb81800026d0bf000080fb00cf80de003f
:10287000a5f807000001be000a00be00b3f707007c
:102880000801be0088000700b0818800c18188006f
:10289000b0818000c181800018c0b3006011b80011
:1028a0005bf807000000e00001003c000044eb0082
:1028b0000804e00004003200c3cca90024eea80004
:1028c000c3eca80003003700c3eca90024cea80085
:1028d000c3cca800b0818000c18180005c000700eb
:1028e0000200200003222400dff807006bf8070035
:1028f0000000780030668800748180008581800047
:10290000508180006181800018c0b3000001be00ca
:102910000400be003cf807000000e00001003500a4
:102920000044eb000804e0000f00320058818000f2
:10293000698180007a8180008b81800026d0bf0071
:102940000080fb00cf80de006ff807000001be00b2
:102950000a00be007ef707000801be006a000700fb
:102960007081880081818800748180008581800069
:10297000508180006181800018c0b3000001be005a
:102980000400be0022f807000000e00001003c0047
:102990000044eb000804e0000f0032005881800082
:1029a000698180007a8180008b81800026d0bf0001
:1029b0000080fb00cf80de0053f807000001be005e
:1029c0000a00be0061f707000801be0036000700dc
:1029d0007081880081818800708180008181800001
:1029e00018c0b3006011b80009f807000000e0004b
:1029f00001003c000044eb000804e0000400320049
:102a000023eca90015cea80023cca80003003700b2
:102a100023cca90015eea80023eca800708180004b
:102a2000818180000a0007000200200003222400a8
:102a30008df8070019f80700000078003061880061
:102a40004f05be004f04be000080fa0000000600e3
:102a50000400fa00881f7800008fbe0018c0b30081
:102a60006011b8001e0078009e009000e8f7070093
:102a70000000e00001003d000044eb000804e0001d
:102a8000030032001e0078009e0090000300370013
:102a90001e0078009e00900001f0a2004f04780014
:102aa0000080fa00000006000800fa00881f780085
:102ab000008fbe00220798003307980018c0b300ab
:102ac0002e019000be0190001e0078009e00900034
:102ad000cff707000000e00001003c000044eb00dd
:102ae0000804e000030032001e0078009e00900001
:102af000020037002e009000be0090004f047800c6
:102b00000080fa00000006000800fa00881f780024
:102b1000008fbe00220798003307980018c0b3004a
:102b20002e019000be0190001e0078009e009000d3
:102b3000b5f707000000e000010035000044eb009d
:102b40000804e000030032001e0078009e009000a0
:102b5000020037002e009000be0090004f04780065
:102b60000080fa00000006000c00fa00881f7800c0
:102b7000008fbe0022079800330798004407980092
:102b80005507980018c0b3004e019000de01900078
:102b90001e0078009e0090009df707000000e000f6
:102ba00001003c000044eb000804e0000400320097
:102bb0004e019000de019000028fbe000e00370033
:102bc00018c0b3002e019000be0190001e007800d6
:102bd0009e0090008cf707000000e0000100350027
:102be0000044eb000804e000030032002e019000d6
:102bf000be019000028fbe001e0078009e00900073
:102c00004f0478000080fa00000006000400fa007b
:102c1000008fbe00b2fd2000930424001e00780047
:102c20009e00900027f70700020020004333240095
:102c30000df807000080fa00000006000400fa000a
:102c4000008fbe00b2fd2000930424001e00780017
:102c50009e00900004f80700020020004333240087
:102c600018f707000080fa00000006000000fa00d4
:102c700021e3a9002143a80001198000f0cf2f0013
:102c800000806000001988002043a900011980001d
:102c9000000e20000100700000198800111980004a
:102ca000f0ff210000806000101988002343a80075
:102cb00011198000f0cf2f000080600010198800eb
:102cc0001119800030f82f00008060000030a00053
:102cd000101988002203a9002223a90025e3a900d6
:102ce000f0c0b30024e3b70021198000f00f2e00dc
:102cf0008080600000f02000010070002019880032
:102d00003303a9002e0ea8002f6ea8006f2ea80076
:102d100030c3a8003163a8002e03a8004119800029
:102d200000fc2f00008060004019880028e3a90003
:102d300001a8a90021a8a80021e3a8000080fa00aa
:102d4000000006000000fa002023a8000080fa001e
:102d5000000006000000fa00e00021000080fa00f8
:102d6000000006000000fa0016d0bf000080fa0044
:102d7000000006000000fa001670ef000080fa0064
:102d8000000006000000fa002002a90001118000e6
:102d900090ff2f00008060000011880020a2a90091
:102da0002062a800500520004011880023a2a9003d
:102db00023e2a9000188a9002188a900111180003f
:102dc000f0f32f0000806000101188000168a90056
:102dd0002168a80021e2a8002342a8000080fa0090
:102de000000006000600fa0010079800210798006e
:102df0000040eb00004f78000040eb00004f7800ef
:102e00000e0037000000000011118000002020009b
:102e1000008060000000e000fbff3a001e00900010
:102e2000104078000080fb00201188001e009000f8
:102e30000000e800100798001e4fe8009e80fb008d
:102e40002e009000808f5000eeff35000080fa00c9
:102e5000000006000000fa00f0032000303a88006d
:102e6000213a8000f0f32f0000806000203a8800b3
:102e7000213a800000fe2f00008060000000a000ca
:102e8000203a88001200200080072000a1092000bd
:102e900033742000804978008149780082497800a5
:102ea000103a8000000178000200a00060042000b9
:102eb0007105200023742000804978008149780042
:102ec0008249780000000000113a800000002700cd
:102ed0008080600000002100808f5000faff3a00df
:102ee00000000000113a8000000220000080600015
:102ef0000000e000fbff32000080fa000000060046
:102f00000000fa000e2eef001e2eef002e2eef0016
:102f10003e2eef004e2eef005e2eef006e2eef00e5
:102f2000214ea90060cea90060eea90011cea90033
:102f300011eea90020cea90020eea90021368000c4
:102f400000f82f00008060008001b3002036880068
:102f50001134800000fc2f00008060000000a00001
:0c2f6000103488000080fa000000060019
:020000040000fa
:102f6c001810000008000000800000000010000095
:102f7c000c00000082000000e80323000019000090
:102f8c0005001900000100002010000006000000e0
:102f9c0080000000281000002600000080000000c7
:102fac00261000000200000082000000010000005a
:102fbc000c1000000c00000080000000000000005d
:020000040000fa
:02000004000af0
:04afe000cfff00009f
:020000040000fa
:02000004000af0
:04afe400ffff00006b
:020000040000fa
:02000004000af0
:04afe8007fff0000e7
:020000040000fa
:02000004000af0
:04afec005fff000003
:020000040000fa
:02000004000af0
:04aff00038ff000026
:020000040000fa
:02000004000af0
:04aff400ffff00005b
:00000001FF
